:020000040800F2
:10000000084A0020DD010008A50300084903000894
:10001000A103000825020008A30900080000000051
:100020000000000000000000000000004501000882
:1000300029020008000000008901000849060008A4
:10004000F7010008F7010008F7010008F7010008B0
:10005000F7010008F7010008F7010008F7010008A0
:10006000F7010008F7010008F7010008F701000890
:10007000F7010008F7010008F7010008F701000880
:10008000F7010008F7010008F7010008F701000870
:10009000F7010008F7010008F7010008F701000860
:1000A000F7010008F7010008F7010008F701000850
:1000B000F7010008F7010008F7010008F701000840
:1000C000F7010008F7010008F7010008F701000830
:1000D000F7010008E5060008F7010008F70100082D
:1000E000F7010008F7010008F7010008F701000810
:1000F000F7010008F7010008F7010008F701000800
:10010000F7010008F7010008F7010008F7010008EF
:10011000F7010008F7010008F7010008F7010008DF
:10012000F7010008F7010008F7010008F7010008CF
:10013000DFF80CD000F064F800480047DD09000843
:10014000084A0020224B19680868B0E8F00F80F3D5
:100150000988BFF36F8F4FF0000080F311884EF0D5
:100160000D0E70470000000006480068006880F32C
:10017000088862B661B6BFF34F8FBFF36F8F00DFA1
:1001800000BF00BF08ED00E0EFF30980BFF36F8F01
:100190000F4B1A6820E9F00F106008B54FF0BF0050
:1001A00080F31188BFF34F8FBFF36F8F00F0F2FF22
:1001B0004FF0000080F31188BDE808401968086816
:1001C000B0E8F00F80F30988BFF36F8F704700BF6E
:1001D0001C000020EFF305807047000006488047B0
:1001E00006480047FEE7FEE7FEE7FEE7FEE7FEE71C
:1001F000FEE7FEE7FEE7FEE75906000831010008CA
:10020000064C074D06E0E06840F0010394E8070063
:1002100098471034AC42F6D3FFF78EFFE014000885
:100220000015000800BFFEE770472DE9F0410246C7
:1002300000250026002000230024002791F803C099
:100240000CF00F0591F803C00CF0100CBCF1000F7E
:1002500003D091F802C04CEA050591F800C0BCF14A
:10026000000F31D0146800202BE04FF0010C0CFA85
:1002700000F3B1F800C00CEA03069E4220D18300CF
:100280004FF00F0C0CFA03F7BC4305FA03FC4CEAE1
:10029000040491F803C0BCF1280F06D14FF0010C03
:1002A0000CFA00FCC2F814C00AE091F803C0BCF1DB
:1002B000480F05D14FF0010C0CFA00FCC2F810C039
:1002C000401C0828D1D31460B1F800C0BCF1FF0F66
:1002D00034DD546800202EE000F1080C4FF00108D6
:1002E00008FA0CF3B1F800C00CEA03069E4221D1D3
:1002F00083004FF00F0C0CFA03F7BC4305FA03FC24
:100300004CEA040491F803C0BCF1280F05D100F1B8
:10031000080C08FA0CF8C2F8148091F803C0BCF17C
:10032000480F07D100F1080C4FF0010808FA0CF84B
:10033000C2F81080401C0828CED35460BDE8F0817C
:10034000416170470161704700BFFEE708B50121B8
:10035000102000F07BF84FF40050ADF800001020A2
:100360008DF8030003208DF8020069460A48FFF764
:100370005CFF0121082000F069F84020ADF8000082
:1003800010208DF8030003208DF802006946034811
:10039000FFF74BFF08BD000000100140000C0140BA
:1003A00000BFFEE77047000070B5002100230F2258
:1003B000C47804B3154C246804F4E064C4F5E06424
:1003C000210AC1F10403CA40447804FA03F1847895
:1003D0001440214309010E4C0678A155047804F01D
:1003E0001F050124AC4005786D11AD0005F1E02535
:1003F000C5F8004109E0047804F01F050124AC4071
:10040000044D0678761145F8264070BD0CED00E0ED
:1004100000E400E080E100E002490143024A11608B
:10042000704700000000FA050CED00E029B1064A13
:1004300012690243044B1A6104E0034A12698243C1
:10044000014B1A61704700000010024029B1064AB2
:1004500092690243044B9A6104E0034A9269824321
:10046000014B9A61704700000010024029B1064A12
:10047000D2680243044BDA6004E0034AD268824344
:10048000014BDA60704700000010024030B50021D7
:100490000022002400232D4D6D6805F00C0121B1D0
:1004A000042905D0082923D105E0294D056022E063
:1004B000274D05601FE0254D6D6805F47012234D32
:1004C0006D6805F48034022505EB92421CB9214D7C
:1004D000554305600BE01D4D6D6805F400351DB1F9
:1004E0001C4D5543056002E0194D5543056002E07F
:1004F000174D056000BF00BF144D6D6805F0F00199
:100500000909154D6B5C0568DD4045600F4D6D6850
:1005100005F4E061090A104D6B5C4568DD408560BB
:100520000A4D6D6805F46051C90A0B4D6B5C456856
:10053000DD40C560054D6D6805F44041890B074DF0
:100540006B5CC568B5FBF3F5056130BD001002407A
:1005500000127A0000093D0006000020160000206D
:1005600010B500F001F810BD0CB50020019000900E
:100570003348006840F480303149086000BF30489B
:10058000006800F4003000900198401C0190009831
:1005900018B90198B0F5A06FF1D12948006800F4AE
:1005A000003010B10120009001E000200090009880
:1005B000012843D12348006840F010002149086019
:1005C0000846006820F0030008600846006840F014
:1005D000020008601A4840681949486008464068A7
:1005E00048600846406840F48060486008464068BB
:1005F00020F47C1048600846406840F4E8104860E9
:100600000846006840F08070086000BF0C48006831
:1006100000F000700028F9D00948406820F003007D
:10062000074948600846406840F00200486000BF43
:100630000348406800F00C000828F9D10CBD000008
:10064000001002400020024010B500F037FE0128E3
:1006500001D000F0E9FD10BD10B51348006840F06E
:1006600001001149086008464068104908400E49D9
:100670004860084600680E4908400B490860084673
:10068000006820F4802008600846406820F4FE00DE
:1006900048604FF41F008860FFF762FF4FF0006072
:1006A0000449086010BD0000001002400000FFF87F
:1006B000FFFFF6FE08ED00E011E04FF4005108489E
:1006C000FFF740FE4FF47A7000F010FD4FF4005138
:1006D0000348FFF735FE4FF47A7000F007FDECE7B2
:1006E0000010014010B540F225511D4800F098F867
:1006F00010B31B4800F050F9C4B21A48008800F447
:100700000040C8B91748008800F4804060B10A2C46
:1007100003D000201349088020E01248008840F4EC
:1007200000401049088019E00D2C06D10D480088C2
:1007300040F480400B49088010E00A480088C0F36C
:100740000D0009490C5407480088401C05490880E1
:1007500008460088C72801DD0020088010BD000081
:1007600000380140040000207400002021B182897B
:1007700042F40052828104E082894DF6FF731A40F0
:100780008281704710B504462048844209D1012176
:100790008803FFF76BFE00214FF48040FFF766FEF1
:1007A00032E01B48844209D101214804FFF73EFE94
:1007B00000214FF40030FFF739FE25E01548844250
:1007C00009D101218804FFF731FE00214FF4802078
:1007D000FFF72CFE18E01048844209D10121C8041B
:1007E000FFF724FE00214FF40020FFF71FFE0BE06F
:1007F0000A48844208D101210805FFF717FE0021AD
:100800004FF48010FFF712FE10BD000000380140C9
:100810000044004000480040004C004000500040B0
:1008200070B50246002400230025002040F66A1619
:10083000B14200D100BFC1F3421501F01F030126F0
:1008400006FA03F3012D02D19689334006E0022D0A
:1008500002D1168A334001E0968A33400C120126F9
:1008600006FA04F41688344013B10CB1012000E0FC
:10087000002070BDF0B503460024002600250020AE
:1008800040F66A17B94200D100BF1846C1F34214BE
:1008900001F01F06012707FA06F5012C01D10C30E3
:1008A00004E0022C01D1103000E014301AB10768C6
:1008B0002F43076002E00768AF430760F0BD000008
:1008C0002DE9F04786B005460E460024A24600BF3B
:1008D000A1460027B08900B100BF2F462C8A4CF6F4
:1008E000FF700440F08804432C82AC894EF6F3106C
:1008F0000440B08831890843718908430443AC81BE
:10090000AC8A4FF6FF400440B0890443AC8201A892
:10091000FFF7BCFD1F48874202D1DDF810A001E0BF
:10092000DDF80CA0A88900F4004040B10AEBCA0031
:1009300000EB0A1031684900B0FBF1F807E00AEB60
:10094000CA0000EB0A1031688900B0FBF1F864209E
:10095000B8FBF0F004012009642101FB1089A8898B
:1009600000F4004040B1322000EBC900B0FBF1F0D0
:1009700000F00700044308E0322000EB0910642176
:10098000B0FBF1F000F00F0004432C8106B0BDE88D
:10099000F08700000038014001468888C0F3080055
:1009A000704700BFFEE702E008C8121F08C1002A16
:1009B000FAD170477047002001E001C1121F002AE0
:1009C000FBD1704710B54FF4A060FFF725FD4FF441
:1009D000E13000F097FAFFF7B9FC10BD1CB5FFF746
:1009E000F1FF0020012103464A02CDE9001004A1D5
:1009F000054800F033FC00F093FB00201CBD000014
:100A00005461736B31000000B90600082DE9F04114
:100A100005460E461C4807681C480068001D00F08B
:100A2000CBFA50B91948006890F82C100120884082
:100A300017490968814316480160681C38B936B106
:100A400012480168091D134800F0F4FA1AE07C19F5
:100A50000E4800684460BC4207D20C480168091D7A
:100A60000D48006800F0CCFA0CE008480168091D48
:100A70000A48006800F0C4FA09480068844201D2BC
:100A800007480460BDE8F081300000201C00002011
:100A900034000020F001002024000020200000206D
:100AA0004C00002010B5044600F0D0FA234800683E
:100AB000401C224908602248006840B92048046070
:100AC0000846006801280DD100F014F90AE01D481D
:100AD000006838B91A480068C06AE16A884201D8DB
:100AE0001748046018480068401C1749086094F8CB
:100AF0002C100120884015490968084313490860F3
:100B0000E16A01EB8101124A02EB8100211D00F034
:100B100091FA00F0ADFA0B48006868B10848006827
:100B2000C06AE16A884207D24FF0805009490860E4
:100B3000BFF34F8FBFF36F8F10BD00002C0000205C
:100B40001C00002038000020480000203400002055
:100B50003C01002004ED00E070B523E000F012FB42
:100B60001348006808B9012000E00020054600F0A5
:100B700043FCBDB900F06AFA0D48C068C468201D86
:100B800000F01AFA0B480068401E0A4908600A483B
:100B90000068401E0849086000F06AFA204600F02C
:100BA0000DF800BF044800680028D7D170BD0000D0
:100BB000DC0100202C0000202800002010B5044695
:100BC000206B00F065FA204600F062FA10BD0000CC
:100BD00030B54FF48843174800F007042CB1C01D0E
:100BE00020F00700134C041B1B1B0246124C226012
:100BF0000024114D6C60D018083820F007000F4C0D
:100C0000206000240D4D2D686C600C4D2D682C600B
:100C10001146441A4C60094C24680C60084D4C681D
:100C20002C60084D4C682C604FF00044064D2C6041
:100C300030BD0000040200205800002060000020A9
:100C400068000020640000206C00002000BFFFF757
:100C500083FF064800680128F9D94FF08050044905
:100C60000860BFF34F8FBFF36F8FF0E73C010020A8
:100C700004ED00E02DE9FF5F80460E469146DDE978
:100C80000E7A109CA9F10100216B01EB800B2BF077
:100C9000070B002507E0715D04F134004155705DDC
:100CA00000B902E06D1C102DF5D300BF00214320D8
:100CB0000155052F00D30427E762201D00F09DF9A0
:100CC00004F1180000F099F92461C7F10500A06152
:100CD00064620020606484F8480041465846039AE4
:100CE00000F0FEF82060BAF1000F01D0CAF8004011
:100CF000BDE8FF9F10B5002407E004EB84010F4A14
:100D000002EB810000F06CF9641C052CF5D30C4853
:100D100000F066F90B4800F063F90B4800F060F949
:100D20000A4800F05DF90A4800F05AF904480949F8
:100D3000086004480849086010BD00003C0100201C
:100D4000A0010020B4010020C8010020DC01002027
:100D5000F0010020200000202400002010B50146F2
:100D6000164800E0006803688B42FBD302464368E4
:100D700013448B4204D143684C68234443600146CA
:100D80000A464B6813440468A34211D10C4C036813
:100D90002468A34208D04B680468646823444B600D
:100DA00003681B680B6005E0054B1B680B6001E0E6
:100DB00003680B60884200D0016010BD580000201D
:100DC000600000200A490968096809B9012100E0AA
:100DD000002121B14FF0FF31064A116006E00449BD
:100DE0000968C968C868034A416811607047000013
:100DF000200000204C00002000BFBF2080F311889D
:100E0000BFF34F8FBFF36F8F00BF00BFFEE700003F
:100E10002DE9F04105464FF0000800F0B3F92B48EA
:100E2000006808B9FFF7D4FE294800682840002868
:100E300047D145B1083505F0070020B105F007009E
:100E4000C0F108000544002D3BD0224800688542CF
:100E500037D8214E3046046801E026462468606891
:100E6000A84202D220680028F7D1184800688442BE
:100E700027D0306800F10808206830606068401BA7
:100E8000102807D967196068401B7860656038468C
:100E9000FFF764FF0F4960680968081A0D49086088
:100EA000084600680D490968884203D2094800686D
:100EB0000A490860064960680968084360600020C4
:100EC000206000F099FA4046BDE8F0816000002003
:100ED0006C00002064000020580000206800002002
:100EE000001F4FF080730360001F21F001030360B7
:100EF000001F034B03601438026020387047000065
:100F0000F90D000810B586B00446012144F2040032
:100F1000FFF79CFA2648FFF735FC4FF40070ADF858
:100F2000140003208DF8160018208DF8170005A96D
:100F30002048FFF77AF94FF48060ADF8140048209C
:100F40008DF8170005A91B48FFF76FF925208DF8CC
:100F5000000003208DF801008DF8020001208DF8BB
:100F600003006846FFF720FA01940020ADF808005E
:100F7000ADF80A00ADF80C00ADF810000C20ADF88B
:100F80000E0001A90A48FFF79BFC012240F2244110
:100F90000748FFF76FFC012240F225510448FFF794
:100FA00069FC01210248FFF7E1FB06B010BD00001B
:100FB000003801400008014001460A69D1E90130CA
:100FC0009860D1E9010358605068884201D188686F
:100FD0005060002008611068401E10601068704763
:100FE00000F1080141604FF0FF31816000F108011C
:100FF000C1600161002101607047002101617047FB
:1010000010B502460B685C1C0CB9106907E002F1D0
:10101000080000E04068446824689C42FAD94468AB
:101020004C604C68A160886041600A611468641C6F
:10103000146010BD42684A6093688B609368596081
:101040009160086103685B1C0360704700BFBF20AC
:1010500080F31188BFF34F8FBFF36F8F00BF03483A
:101060000068401C014908607047000070000020C3
:1010700006480068401E054908600846006820B917
:10108000002080F3118800BF00BF7047700000206F
:1010900070B506463546D6B1083D2C460C49606809
:1010A0000968084098B1206888B9094960680968EA
:1010B0008843606000F066F8064960680968084483
:1010C000044908602046FFF749FE00F095F970BD1D
:1010D0006C0000206400002003484FF0E0214861CC
:1010E00007200861704700003F19010070B50446F1
:1010F000002544B100F046F800212046FFF786FCA9
:1011000000F07AF905463DB94FF080500349086078
:10111000BFF34F8FBFF36F8F70BD000004ED00E091
:101120001CB5114800210B468022CDE900100FA10B
:10113000104800F093F80446012C14D100BFBF20E2
:1011400080F31188BFF34F8FBFF36F8F00BF4FF055
:10115000FF3009490860012008490860002008495B
:10116000086000F047F81CBD5000002049444C4581
:10117000000000004D0C00084C000020380000204A
:101180003000002002480068401C01490860704798
:10119000540000201248006818B10120114908606D
:1011A0001DE000200F4908600F480068B0FA80F089
:1011B000C0F11F0101EB81020C4B03EB820042687E
:1011C0005268426000F108024368934202D14268CB
:1011D000526842604268D268054B1A6000BF70478F
:1011E0005400002040000020340000203C0100207A
:1011F0001C00002010B50A48006840F47F00084930
:1012000008600846006840F07F400860FFF764FF10
:10121000002004490860FEF7A7FF002010BD000071
:1012200020ED00E07000002010B500BFBF2080F36B
:101230001188BFF34F8FBFF36F8F00BF00F04EF8E0
:1012400018B14FF080500449086000BF002080F3BF
:10125000118800BF10BD000004ED00E02DE9FF4F34
:1012600085B0804689461746DDE912ABB800FFF726
:10127000CFFD064656B14C20FFF7CAFD04460CB11F
:10128000266304E03046FFF703FF00E000247CB152
:101290000020CDE900ABCDE902403A464946404640
:1012A000089BFFF7E7FC2046FFF7FCFB012501E068
:1012B0004FF0FF35284609B0BDE8F08F05490968B1
:1012C00009B9012005E00449096809B9022000E0D4
:1012D0000020704738000020540000202DE9F04124
:1012E00000273A480068002863D139480068451C47
:1012F000374805608DB93748D0F800803648006817
:10130000344908603448C0F8008034480068401C04
:1013100032490860FFF756FD00BF3148006885423A
:101320003BD300BF2B480068006808B9012000E0EB
:10133000002020B14FF0FF30294908602CE02548FB
:101340000068C068C4686668B54202D22448066076
:1013500022E0201DFFF730FEA06A18B104F118004A
:10136000FFF72AFE94F82C10012088401D490968D7
:1013700008431C490860E16A01EB81011A4A02EB4B
:101380008100211DFFF756FE1849E06A0968C96A05
:101390008842C7D30127C5E700BF14480068C06A68
:1013A00000EB8000104951F82000012800D90127E6
:1013B00004E00F480068401C0D4908600D480068B3
:1013C00000B101273846BDE8F0810000540000203C
:1013D00030000020200000202400002044000020D5
:1013E0004C000020340000203C0100201C000020A4
:1013F0003C0000204000002070B500240026FFF7CC
:1014000025FE2E480068401E2C49086008460068EA
:1014100000284FD12A48006800284BD024E02948F2
:10142000C068C46804F11800FFF7C6FD201DFFF76F
:10143000C3FD94F82C100120884023490968084313
:1014400021490860E16A01EB8101204A02EB810039
:10145000211DFFF7EFFD1E49E06A0968C96A88424D
:1014600002D301201B4908601648006808B9012012
:1014700000E000200028D2D00CB1FFF7A3FC1648F2
:10148000056865B100BFFFF729FF10B101201149C0
:1014900008606D1E002DF6D100200F4908600D4830
:1014A000006838B1012630070C490860BFF34F8F40
:1014B000BFF36F8FFFF7DCFD304670BD5400002096
:1014C0002C000020C8010020340000203C01002036
:1014D0001C000020400000203C00002004ED00E043
:1014E000001500080000002074000000A609000894
:1014F000741500087400002094490000B609000823
:1015000000000000000000000000010203040102CE
:101510000304060708090204060800000000000092
:1015200000000000000000000000000000000000BB
:1015300000000000000000000000000000000000AB
:10154000000000000000000000000000000000009B
:10155000000000000000000000000000000000008B
:10156000000000000000000000000000000000007B
:04157000AAAAAAAACF
:04000005080001DD11
:00000001FF
