:020000040800F2
:1000000000500020DD01000855180008B914000850
:1000100051180008190D0008D33100080000000035
:100020000000000000000000000000004501000882
:10003000A30D00080000000089010008512C0008F1
:10004000F7010008F7010008F7010008F7010008B0
:10005000F7010008F7010008F7010008F7010008A0
:10006000F7010008F7010008F7010008F701000890
:10007000F7010008F7010008F7010008F701000880
:10008000F7010008F7010008F7010008F701000870
:10009000F7010008F7010008F7010008F701000860
:1000A000F7010008F7010008F7010008F701000850
:1000B000F7010008C12C0008512D0008F7010008C5
:1000C000F7010008F7010008F7010008F701000830
:1000D000F7010008812E0008B92E00080D2F000836
:1000E000F7010008F7010008F7010008F701000810
:1000F000F7010008F7010008F7010008F701000800
:10010000F7010008F7010008F7010008F7010008EF
:10011000F7010008F7010008F7010008F7010008DF
:10012000F7010008F7010008F7010008F7010008CF
:10013000DFF80CD000F08EFA00480047B93E000806
:1001400000500020224B19680868B0E8F00F80F3D7
:100150000988BFF36F8F4FF0000080F311884EF0D5
:100160000D0E70470000000006480068006880F32C
:10017000088862B661B6BFF34F8FBFF36F8F00DFA1
:1001800000BF00BF08ED00E0EFF30980BFF36F8F01
:100190000F4B1A6820E9F00F106008B54FF0BF0050
:1001A00080F31188BFF34F8FBFF36F8F04F0E6FC2D
:1001B0004FF0000080F31188BDE808401968086816
:1001C000B0E8F00F80F30988BFF36F8F704700BF6E
:1001D00038030020EFF30580704700000648804791
:1001E00006480047FEE7FEE7FEE7FEE7FEE7FEE71C
:1001F000FEE7FEE7FEE7FEE7612C0008310100089C
:10020000D2B201E000F8012B491EFBD27047002258
:10021000F6E710B513460A4604461946FFF7F0FF05
:10022000204610BD30B505462A460B4612F8010B94
:1002300013F8014B08B1A042F8D01CB1002802D03D
:100240006D1CF1E7284630BD421C10F8011B002947
:10025000FBD1801A704730B50B46014600202022A2
:10026000012409E021FA02F59D4205D303FA02F5C3
:10027000491B04FA02F52844151EA2F10102F1DC23
:1002800030BD2DE9F05F0546002092469B4688462A
:100290000646814640241BE0284641464746224602
:1002A00000F0F9F953465A46C01A914110D311464D
:1002B0001846224600F0E0F92D1A67EB01084F4678
:1002C00022460120002100F0D7F917EB00094E412A
:1002D000201EA4F10104DFDC484631462A4643468D
:1002E000BDE8F09F2DE9FE4F804681EA0300C00F74
:1002F0000C46009021F0004123F00045B8EB0200CD
:10030000A94105D24046214690461C460B4602466E
:1003100023F00040104347D0270DC7F30A00C3F372
:100320000A510290401A019040286BDAC3F313007F
:1003300040F4801B0098924620B10023D2EB030AC0
:1003400063EB0B0B01985946C0F14002504600F098
:1003500093F906460D4650465946019A00F0ABF90E
:1003600010EB08006141002487EA115284EAE77328
:100370001A4340D0009A62B3019A012A4FEA075209
:1003800015DC001B61EB02014FF0004202EA07524C
:10039000CDE90042001C41F5801132462B4600F0A9
:1003A000ABF903B0BDE8F08F40462146F9E7001BEA
:1003B00061EB0201001C41F5801300185B4120181D
:1003C000A2F5001747EB030140EAD570B6196D415D
:1003D00011E06D084FEA360645EAC0754FEA07524C
:1003E000001B61EB0201001C41F5801149084FEA36
:1003F00030000019514132462B4603B0BDE8F04FA2
:1004000000F06BB90098012240000023D0EB0202FB
:1004100063EBE073009821464FEAE074B8EB00000C
:1004200061EB0401E9E783F000435BE781F0004101
:1004300058E72DE9FE4F81EA030404F0004421F05F
:10044000004100944FF0000B23F0004350EA0104F8
:100450005ED052EA03045BD0C3F30A54C1F30A55D9
:100460002C44A4F2F3340194A0FB0254C1F3130111
:1004700041F48011C3F3130343F4801301FB0244DE
:1004800000FB034E840A970A44EA815447EA8357E3
:10049000A4FB076802958D0A05FB07854FEA932C9C
:1004A00004FB0C542705029D4FEA065847EA16370D
:1004B000B5EB08056EEB070C870E920E47EA811725
:1004C00042EA8312A7FB0201B6EB0B0164EB0004C6
:1004D0002B0D43EA0C335E1844EB1C50DA465146B0
:1004E000E7FB0201C5F313044FEA0B3343EA14534D
:1004F0004FEA0432019C43EA0603A4F10C0402947F
:10050000009CCDE900B400F0F7F803B0BDE8F08F2F
:1005100000200146F9E72DE9F04D81EA030404F0DB
:10052000004B21F0004514464FF0000A23F0004133
:1005300050EA050220D054EA01021DD0C5F30A5743
:100540000246C5F31303C1F31300C1F30A5640F486
:10055000801543F48013A7EB0608101BD64608F25B
:10056000FD3873EB050002D308F1010801E0921891
:100570005B41B8F1000F03DA00200146BDE8F08DC1
:1005800000204FF48011064684460EE0171B73EBE3
:10059000050705D3121B63EB050306434CEA010C68
:1005A00049084FEA300092185B4150EA0107EDD14B
:1005B00052EA030012D082EA040083EA05010843EC
:1005C00005D0101BAB4106D20122002306E0002219
:1005D0004FF0004302E06FF0010253101AEB0600E7
:1005E0004CEB085110EB0A0041EB0B01BDE8F04D5C
:1005F00000F073B8C1F30A52C1F3130140F2FF33A4
:1006000041F480119A4202DA00200146704740F21C
:1006100033439A42A2F2334202DC524200F03BB82A
:1006200000F02AB830B5041E71F1000404DB4FF06D
:100630000044404264EB0101141E73F1000405DB29
:100640001C464FF00043524263EB0403994208BF3B
:10065000904230BD064C074D06E0E06840F00103D3
:1006600094E8070098471034AC42F6D3FFF764FDD6
:10067000E856000808570008202A04DB203A00FA50
:1006800002F1002070479140C2F1200320FA03F3E9
:10069000194390407047202A04DB203A21FA02F0E7
:1006A0000021704721FA02F3D040C2F120029140AC
:1006B000084319467047202A06DBCB17203A41FA37
:1006C00002F043EAE07306E041FA02F3D040C2F1DF
:1006D0002002914008431946704710B5141E73F16B
:1006E000000408DA401C41F1000192185B411A43F2
:1006F00001D120F0010010BD2DE9F04D92469B463E
:1007000011B1B1FA81F202E0B0FA80F220329046E3
:10071000FFF7B2FF04460F4640EA0A0041EA0B0128
:1007200053465A46084313D0114653EA010019D0E4
:10073000C8F140025046FFF7AEFF05460E46504650
:1007400059464246FFF798FF084305D0012004E0D0
:1007500020463946BDE8F08D0020054346EAE076A4
:100760002C4337430A986305E40AA0EB08000022F3
:10077000FD0A44EA47540A3002D500200146E9E761
:10078000010510196941DDE9084500196941BDE815
:10079000F04DA2E770B58C1810F8015B15F0070357
:1007A00001D110F8013B2A1106D110F8012B03E00A
:1007B00010F8016B01F8016B5B1EF9D12B0705D412
:1007C0000023521E0DD401F8013BFAE710F8013B5B
:1007D000CB1A921C03E013F8015B01F8015B521E77
:1007E000F9D5A142D8D3002070BD000010B512A0E9
:1007F00002F062FD0DE04FF4C87003F0FFF914A0A1
:1008000002F05AFD4FF4487003F0F8F915A002F019
:1008100053FD194801F0D8FA0028ECD117A002F0D6
:100820004BFD1A4801F054FC19490870194801F0B1
:1008300071FB1749087010BD0D0AD3EB41533630D8
:1008400038C4A3BFE9CED5CAD62E2E2E2E0D0A004F
:100850000D0ACEB4BCECB2E2B5BDC4A3BFE9212100
:10086000210D0A000D0AB3A2CAD4C1ACBDD3C4A3E2
:10087000BFE92E2E2E0D0A00400000200D0ACDA843
:10088000D1B6B3C9B9A62121210D0A004600002026
:10089000440000209403002052E02A480068002809
:1008A0003BD003F035FB2849086008460068012862
:1008B00016D12449703108604FF4FA7003F09EF9A4
:1008C00000202249C1F8800102212148006804F07B
:1008D00092F920A002F0F0FC0020224908601CE000
:1008E000002410E001201749703108604FF4FA70BD
:1008F00003F084F900201549C1F880014FF4FA7023
:1009000003F07CF9641C032CECDB17A002F0D4FC90
:1009100014480068401C1349086012480068032806
:100920000BDB1548006804F0C3F80E48016813A0FB
:1009300002F0C2FC002004F0BBF80A2003F0B4FF70
:10094000ABE7000010812142080000200080214216
:1009500010000020D6B8CEC6CAB6B1F0B3C9B9A649
:100960000000000000000020D6B8CEC6CAB6B1F024
:10097000CAA7B0DC000000002C000020B4EDCEF3CC
:100980003D2564A3ACB7C7B7A8C8EBC7D6A3ACD600
:10099000C7C4DCCBF8CDA3D3C3320A002DE9F8439A
:1009A0004FF0000800250027FDE0B8F1050F2FD219
:1009B000DFE808F0032F5D7C9800701CC6B210239E
:1009C0007BA20321142001F043F900BF7B4800689B
:1009D0000028FBD001F0DBF904468CB9012001F0BE
:1009E000B3F904461CB900264FF0010810E0204678
:1009F00000F092FB8146494671A002F05DFC07E0E1
:100A0000204600F089FB814649466DA002F054FC67
:100A1000C2E0701CC6B210236AA20321002001F0BC
:100A200017F900BF654800680028FBD001F0AFF956
:100A300004469CB9022001F087F904462CB900F065
:100A40004DFF00264FF0020810E0204600F064FB46
:100A5000814649465AA002F02FFC07E0204600F0EC
:100A60005BFB8146494656A002F026FC94E0102329
:100A700058A203210A2001F0EBF801F02DFA0446F8
:100A800014B94FF003080CE056A002F015FC204604
:100A900000F042FB8146494649A002F00DFC0026C9
:100AA000B0464FF4FA7003F0A9F875E04FF4FA700D
:100AB00003F0A4F801F0A8FA044614B94FF00408B2
:100AC00009E04FF00008204600F026FB8146494629
:100AD0003BA002F0F1FB4FF47A7003F08FF800F0C6
:100AE000FDFE59E0102342A20021084601F0B0F8B3
:100AF000102341A20221002001F0AAF8102340A2F5
:100B00000421002001F0A4F8102340A206210020B7
:100B100001F09EF819E0002000F086FD0746022F44
:100B200004D10027002D01DD681EC5B2052F04D1B8
:100B30000027632D01DA681CC5B2102002232A4663
:100B400006210090322001F03FF8032FE3D100F09E
:100B5000C5FE00272946022001F08AFA044684B91E
:100B600010232CA20321002001F072F84FF4FA6048
:100B700003F044F800F0B2FE0A2003F03FF8BDE8AD
:100B8000F8834FF00008204600F0C6FA8146494637
:100B90000BA002F091FB00BF00BF642003F02EF811
:100BA0000A2E00D100E000E700BF00BFE7E7000029
:100BB000507265737320465200000000108121427C
:100BC000257300005072657373204652206167617F
:100BD000696E0000576169742061206D6F6D656EEC
:100BE00074000000B6D4B1C8CAA7B0DC0A00000087
:100BF0004B352049442B00004B322049442D000046
:100C00004B33204944205361766500004944203D20
:100C100020000000465220536176652053756363BF
:100C20006573730070B505462148006803F040FF06
:100C30002048006803F03CFF00F050FE28E010233D
:100C40001DA20021282001F003F810231CA202217C
:100C5000002000F0FDFF10231CA20421002000F062
:100C6000F7FF10231DA20621002000F0F1FF002055
:100C700000F0DAFC0446012C04D100F02FFEFFF74F
:100C80008DFE05E0022C03D100F028FE00F08AF86A
:100C9000032CD4D100F022FE0548006803F09AFE30
:100CA0000448006803F096FE002003F017FE70BDB4
:100CB000200000201800002041646D696E000000D3
:100CC0004B313A4164642046520000004B323A44B2
:100CD000656C657465204652000000004B333A4550
:100CE0005849540008B50121082001F037FC0120C3
:100CF000ADF8000010208DF8030003208DF80200ED
:100D00006946044800F040FB0121024800F0D0FB96
:100D100008BD0000000C014000BFFEE72DE9F041D6
:100D20000746884615460421052000F02DF80021CD
:100D3000012002F051FA80210A2001F01AFE00245D
:100D400005E0395D092002F047FA601CC4B2444551
:100D5000F7DB0321012002F03FFAFF2400BF05204A
:100D600001F002FD0646601EC4B21CB106F004008C
:100D70000028F4D0222001F0F7FC2870212001F097
:100D8000F3FC6870BDE8F08170B505460C46284656
:100D900001F0EAFC064626EA0401284602F01CFAA5
:100DA00070BD7047F8B5002410232CA2002108461E
:100DB00000F04EFF10232BA20221002000F048FF7C
:100DC00010232AA20421002000F042FF10232AA2AF
:100DD0000621002000F03CFF19E0002000F024FC78
:100DE0000646022E04D10026002C01DD601E84B2CE
:100DF000052E04D10026632C01DA601C84B2102079
:100E00000223224606210090322000F0DDFE032E50
:100E1000E3D100F063FD322002F0F0FE0121204614
:100E200000F03FFF054635B9102315A2032100202D
:100E300000F00EFF07E0284600F06EF9074639463D
:100E400013A002F039FA4FF4FA6002F0D7FE00F076
:100E500045FD0A2002F0D2FEF8BD00004B352049C6
:100E6000442B00004B322049442D00004B332049D5
:100E700044205361766500004944203D2000000075
:100E800044656C6574652053756363657373000016
:100E90002573000086B000BFCEE0684800880028B7
:100EA00071D0002404E06648005D03A90855641C65
:100EB000082CF8DB03A963A002F0FEF962A103A8E5
:100EC000FFF7B0F998B963A103A8FFF7ABF970B9C0
:100ED00063A103A8FFF7A6F948B964A103A8FFF727
:100EE000A1F920B964A103A8FFF79CF918B165A086
:100EF00002F0E2F99AE066A15148FFF793F938B39E
:100F0000012064490860644908604FF4FA7002F0F7
:100F100075FE00206149C1F880016149086061A047
:100F200002F0CAF96248006803F054FD61480068A5
:100F300003F050FD6048006803F04CFD04215F4859
:100F4000006803F058FE80213D48FFF760F96DE02E
:100F50005BA13B48FFF766F9B0B103F055FC5A4876
:100F6000052100234FF40072CDE9001057A15A4823
:100F700003F022FF0546012D02D158A002F09CF992
:100F800003F054FC52E054E059A12D48FFF74AF910
:100F900070B35948006803F08BFD4748006803F0C0
:100FA00087FD00F0B4FE06465EB900F097FC3220E3
:100FB00002F024FE102351A20321142000F048FE69
:100FC00007E0304600F0A8F8074639464EA002F088
:100FD00073F94FF47A7002F011FE00F07FFC46487E
:100FE000006803F0F7FC3448006803F0F3FC1DE0F0
:100FF00000202849086045A002F05EF980211048D1
:10100000FFF705F900240FE00120234908604FF4A1
:10101000FA7002F0F3FD00202049C1F880014FF47E
:10102000FA7002F0EBFD641C032CEDDB0020034999
:1010300008800A2003F038FC2FE70000900300200E
:10104000004B002025730A002B5354415F434F4E41
:1010500000000000302C434F4E4E4543000000007E
:101060002B444953545F535400000000302C434C30
:101070004F534544000000002B5354415F444953F3
:1010800000000000C0ACBBF8D0C5CFA20A00000031
:101090006F6E00000C000020808121420080214200
:1010A00000000020C3DCC2EBD5FDC8B70D0A00006C
:1010B0002C0000201C000020200000201000002038
:1010C00061646D696E0000002800002041646D6954
:1010D0006E5F5461736B0000250C000841646D69FC
:1010E0006EC8CECEF1B4B4BDA8B3C9B9A60A00008B
:1010F0007375706572000000180000204652206968
:101100007320656D7074790025730000C3DCC2EB39
:10111000B4EDCEF30D0A0000014621293ED2DFE8EE
:1011200001F011131517191B1D1F212325273D3D04
:101130003D3D292B3D3D3D2D3D3D2F313335373D47
:101140003D393B0017A02BE017A029E01AA027E0AB
:101150001EA025E022A023E029A021E030A01FE06E
:1011600036A01DE043A01BE045A019E048A017E011
:101170004BA000BF53A013E056A011E059A00FE010
:1011800061A00DE064A00BE066A009E069A007E0A3
:101190006DA005E071A003E073A001E075A000BFA1
:1011A00000BF70474F4B0000CAFDBEDDB0FCBDD391
:1011B000CAD5B4EDCEF30000B4ABB8D0C6F7C9CFF2
:1011C000C3BBD3D0CAD6D6B800000000C2BCC8EB9F
:1011D000D6B8CEC6CDBCCFF1CAA7B0DC00000000A7
:1011E000D6B8CEC6CDBCCFF1CCABB8C9A1A2CCABE2
:1011F000B5ADB6F8C9FAB2BBB3C9CCD8D5F70000C3
:10120000D6B8CEC6CDBCCFF1CCABCAAAA1A2CCABCE
:10121000BAFDB6F8C9FAB2BBB3C9CCD8D5F700004D
:10122000D6B8CEC6CDBCCFF1CCABC2D2B6F8C9FAD7
:10123000B2BBB3C9CCD8D5F700000000D6B8CEC633
:10124000CDBCCFF1D5FDB3A3A3ACB5ABCCD8D5F70E
:10125000B5E3CCABC9D9A3A8BBF2C3E6BBFDCCAB0D
:10126000D0A1A3A9B6F8C9FAB2BBB3C9CCD8D5F7F7
:1012700000000000D6B8CEC6B2BBC6A5C5E40000CB
:10128000C3BBCBD1CBF7B5BDD6B8CEC600000000EE
:10129000CCD8D5F7BACFB2A2CAA7B0DC0000000004
:1012A000B7C3CECAD6B8CEC6BFE2CAB1B5D8D6B7D4
:1012B000D0F2BAC5B3ACB3F6D6B8CEC6BFE2B7B6B5
:1012C000CEA70000C9BEB3FDC4A3B0E5CAA7B0DC79
:1012D00000000000C7E5BFD5D6B8CEC6BFE2CAA79A
:1012E000B0DC0000BBBAB3E5C7F8C4DAC3BBD3D0E7
:1012F000D3D0D0A7D4ADCABCCDBCB6F8C9FAB2BB66
:10130000B3C9CDBCCFF10000B6C1D0B420464C412A
:10131000534820B3F6B4ED00CEB4B6A8D2E5B4ED90
:10132000CEF30000CEDED0A7BCC4B4E6C6F7BAC583
:1013300000000000BCC4B4E6C6F7C9E8B6A8C4DA29
:10134000C8DDB4EDCEF30000BCC7CAC2B1BED2B393
:10135000C2EBD6B8B6A8B4EDCEF30000D6B8CEC670
:10136000BFE2C2FA00000000B5D8D6B7B4EDCEF3A4
:1013700000000000C4A3BFE9B7B5BBD8C8B7C8CF49
:10138000C2EBD3D0CEF300002DE9F0410246002598
:101390000026002000230024002791F803C00CF051
:1013A0000F0591F803C00CF0100CBCF1000F03D036
:1013B00091F802C04CEA050591F800C0BCF1000F9D
:1013C00031D0146800202BE04FF0010C0CFA00F330
:1013D000B1F800C00CEA03069E4220D183004FF012
:1013E0000F0C0CFA03F7BC4305FA03FC4CEA0404A7
:1013F00091F803C0BCF1280F06D14FF0010C0CFA94
:1014000000FCC2F814C00AE091F803C0BCF1480F18
:1014100005D14FF0010C0CFA00FCC2F810C0401CC2
:101420000828D1D31460B1F800C0BCF1FF0F34DD3F
:10143000546800202EE000F1080C4FF0010808FA73
:101440000CF3B1F800C00CEA03069E4221D18300E0
:101450004FF00F0C0CFA03F7BC4305FA03FC4CEAFF
:10146000040491F803C0BCF1280F05D100F1080C69
:1014700008FA0CF8C2F8148091F803C0BCF1480FC8
:1014800007D100F1080C4FF0010808FA0CF8C2F877
:101490001080401C0828CED35460BDE8F08102467D
:1014A000002093680B400BB1012000E00020704742
:1014B000416170470161704700BFFEE710B5202110
:1014C0000748FFF7F7FF80210548FFF7F3FF80216A
:1014D0000348FFF7EDFF20210148FFF7E9FF10BDAA
:1014E0000008014010B520210548FFF7E3FF8021E7
:1014F0000348FFF7DDFF80210148FFF7DBFF10BD48
:101500000008014010B520210348FFF7D3FF202138
:101510000148FFF7CDFF10BD000801407CB505462E
:10152000EF208DF8000001208DF801001A480068B6
:10153000000E8DF8020018480068000C8DF80300BA
:1015400015480088000A8DF80400134800788DF8CB
:10155000050007208DF8060000208DF807000F49D0
:10156000088012E0012002F049FB0C48008800F4DA
:10157000004050B100200949088069460848FEF73C
:1015800051FE04460CB120467CBD681E80B20500A9
:10159000E8D100BFF8E7000040000020480000202C
:1015A000A003002008B50121042000F0D7FF01208E
:1015B000ADF8000048208DF8030069461848FFF791
:1015C000E3FE0220ADF8000048208DF803006946D4
:1015D0001348FFF7D9FE0121082000F0BFFF0220C9
:1015E000ADF8000048208DF8030069460D48FFF76C
:1015F000CBFE0820ADF8000048208DF803006946B6
:101600000848FFF7C1FE4FF48070ADF80000482095
:101610008DF8030069460348FFF7B6FE08BD0000D9
:1016200000080140000C014010B5044614B101202F
:101630002A49087029480078002835D028480068D1
:1016400078B12748001D006858B12648006840B1AD
:10165000244808300068012803D022481C30006864
:1016600010BB282002F0CAFA00201C4908701C4850
:10167000006808B9012010BD1948001D006808B9AC
:101680000220F8E71748006808B90320F3E7154877
:1016900008300068012801D10420ECE711481C3013
:1016A0000068C8B90520E6E70D480068012813D195
:1016B0000B48001D006801280ED10A480068012867
:1016C0000AD108480830006830B906481C30006864
:1016D000012801D1014908700020CCE7300000202A
:1016E00000012142048121421CE00F48006830B90A
:1016F0000E480068012802D00D48006868B102F069
:10170000B5FB4FF4FA6002F079FA00200649086050
:10171000064908600649086001E003F0C7FC0A209A
:1017200003F0C2F8E1E700000400002008000020F8
:101730000C00002008B50121102000F00FFF4FF42D
:101740000050ADF8000010208DF8030003208DF844
:10175000020069460A48FFF717FE0121082000F041
:10176000FDFE4FF40070ADF8000010208DF803006E
:1017700003208DF8020069460248FFF705FE08BD08
:1017800000100140000C014008B51AE04FF0FF3096
:1017900000230122072100900A48006803F074FA30
:1017A00009A001F089FD01200B4908604FF4FA609F
:1017B00002F024FA00200949C1F8A4010A2003F02C
:1017C00073F8E3E710000020B3C9B9A6BDD3CAD5AA
:1017D000CAC2BCFE0A000000A4812142008021424E
:1017E00010B50446412C24D108210846FFF7CCFA55
:1017F0003D21112001F0F0FC8621172001F0ECFCC6
:101800007F21262001F0E8FC1E212D2001F0E4FCC0
:1018100000212C2001F0E0FC8D212A2001F0DCFCCD
:101820003E212B2001F0D8FC022002F007FA00F044
:1018300091FC10BD00BF0549098801F04001002955
:10184000F9D00249091D0880704700000048004097
:1018500000BFFEE77047000070B5002100230F2293
:10186000C47804B3154C246804F4E064C4F5E0645F
:10187000210AC1F10403CA40447804FA03F18478D0
:101880001440214309010E4C0678A155047804F058
:101890001F050124AC4005786D11AD0005F1E02570
:1018A000C5F8004109E0047804F01F050124AC40AC
:1018B000044D0678761145F8264070BD0CED00E029
:1018C00000E400E080E100E002490143024A1160C7
:1018D000704700000000FA050CED00E070B5002430
:1018E00018E004F1B000002100F0CFF90021084613
:1018F00000F0CBF90021102000F0C7F9002505E029
:101900000121002000F0C1F9681CC5B2802DF7DB71
:10191000601CC4B2082CE4DB70BD00002DE9F04768
:1019200007460E469046994600250024A8F120005F
:10193000C5B27F2F02DD0027B01CC6B2B9F1100F6F
:1019400023D13146384600F0F7F8002408E004EBD4
:1019500005110F4A505C012100F097F9601CC4B2D8
:10196000082CF4DB701CC1B2384600F0E5F8002406
:1019700009E004EB05110831054A505C012100F033
:1019800084F9601CC4B2082CF3DBBDE8F0870000CA
:10199000F85000082DE9F05F06460F4690461C46B9
:1019A000DDF828A04FF0000BE11704EB5171C910CE
:1019B000A4EBC10131B92046E11704EB5171C1F329
:1019C000C70506E02046E11704EB5171C910491C18
:1019D000CDB23D4615E02946304600F0ADF8B1469F
:1019E0000BE059460BF1010B1AF80100012100F040
:1019F0004CF909F1010000F0FF09C145F1DB681C59
:101A0000C5B2A542E7DBBDE8F09F000008B50121A3
:101A1000042000F0A3FD10208DF8030003208DF8B2
:101A20000200A020ADF8000069464248FFF7ACFC78
:101A3000A0214048FFF73EFDC82002F0DFF800215A
:101A4000AE2000F022F90021084600F01EF9002126
:101A5000102000F01AF90021402000F016F90021B2
:101A6000812000F012F90021CF2000F00EF90021B2
:101A7000A12000F00AF90021C82000F006F9002199
:101A8000A62000F002F90021A82000F0FEF80021B5
:101A90003F2000F0FAF80021D32000F0F6F80021F2
:101AA000084600F0F2F80021D52000F0EEF8002101
:101AB000802000F0EAF80021D92000F0E6F80021AB
:101AC000F12000F0E2F80021DA2000F0DEF8002139
:101AD000122000F0DAF80021DB2000F0D6F8002117
:101AE000402000F0D2F80021202000F0CEF80021A4
:101AF000022000F0CAF800218D2000F0C6F8002175
:101B0000142000F0C2F80021A42000F0BEF800214B
:101B1000A62000F0BAF80021AF2000F0B6F80021AE
:101B2000AF2000F0B2F8FFF7D9FE0021084600F020
:101B300003F808BD0008014070B504460D4605F1E4
:101B4000B000002100F0A1F8102141EA141000219A
:101B500000F09BF804F00F00002100F096F870BD33
:101B60002DE9F04180460E46154600273146404695
:101B7000FFF7E2FF00240AE0124A02EB8511085D3C
:101B8000012100F082F8781CC7B2601CC4B2102C8E
:101B9000F2DB701CC1B24046FFF7CEFF00240CE020
:101BA0006900491C074A02EB4111085D012100F060
:101BB0006CF8781CC7B2601CC4B2102CF0DBBDE816
:101BC000F08100004A0000202DE9FF5F07469146A2
:101BD0001E460E9D4FF0000A002435E0301B401ECB
:101BE000C1B20A2002F088F9B9FBF0F00A21B0FB7B
:101BF000F1F201FB1208BAF1000F14D1701EA042DD
:101C000011DDB8F1000F0CD1AB4605EBDB714910CB
:101C100001FB0471C8B22B4620220199FFF77EFE1A
:101C200010E04FF0010AAB4605EBDB71491001FBF8
:101C30000471C8B208F13001CAB22B460199FFF70E
:101C40006DFE00BF601CC4B2B442C7DBBDE8FF9F9D
:101C50002DE9F04104460F461546984600260FE050
:101C6000AA5D434639462046FFF758FE04F10800B6
:101C7000C4B2782C02DD0024B81CC7B2701CC6B2F6
:101C8000A85D0028ECD1BDE8F08170B504460D4692
:101C90001DB1E0B201F0FAFA02E0E0B201F0E0FAC0
:101CA00070BD2DE9F04104460D4600F04AFE00F0FB
:101CB0001FFE012000F03FFE072000F04AFE0C202E
:101CC00000F051FE2012FFF7B5FDE0B2FFF7B2FDC4
:101CD0002812FFF7AFFDE8B2FFF7ACFD142000EBD0
:101CE0002420E1B2084400EB2520E9B200EB010812
:101CF000404600F017FE4FF4FA60FFF70FFC07466E
:101D00000FB17E7A00E0FF263046BDE8F08170B565
:101D100000F017FE00F0ECFD012000F00CFE0320A7
:101D200000F017FE0D2000F01EFE1126304600F0D8
:101D3000F9FD4FF4FA60FFF7F1FB05460DB16C7A3F
:101D400000E0FF24204670BD2DE9F041054600F07B
:101D5000F8FD00F0CDFD012000F0EDFD042000F0C5
:101D6000F8FD022000F0FFFD2846FFF763FDEF1DA0
:101D7000384600F0D7FD4FF4FA60FFF7CFFB064678
:101D80000EB1747A00E0FF242046BDE8F08170B502
:101D900000F0D7FD00F0ACFD012000F0CCFD0320E9
:101DA00000F0D7FD012000F0DEFD0526304600F0F2
:101DB000B9FD4FF4FA60FFF7B1FB05460DB16C7A3F
:101DC00000E0FF24204670BD10B5044600F0B9FDC8
:101DD00000F08EFD0120FFF72DFD0020FFF72AFD0A
:101DE0000020FFF727FDC82001F008FF14480088F5
:101DF00000F4004008B313480078EF281AD11148C6
:101E00004078012816D10F488079072812D10D4853
:101E1000807800060B49C97800EB0140094909792F
:101E200000EB01200749497908442060002004495B
:101E3000088010BD0020024908800120F9E7000059
:101E400048000020A00300202DE9F04781460D4600
:101E500016461F4600F075FD00F04AFD012000F017
:101E60006AFD082000F075FD1B2000F07CFD48464F
:101E7000FFF7E0FC2812FFF7DDFCE8B2FFF7DAFC21
:101E80003012FFF7D7FCF0B2FFF7D4FC09F12400C1
:101E900000EB2520E9B2084400EB2620F1B200EB6C
:101EA000010A504600F03EFD4FF4FA60FFF736FBA2
:101EB000044664B194F80980E07AA17A00EB01202D
:101EC0003880607B217B00EB0120788001E04FF0BF
:101ED000FF084046BDE8F08770B500F032FD00F025
:101EE00007FD012000F027FD032000F032FD032054
:101EF00000F039FD0726304600F014FD4FF4FA607B
:101F0000FFF70CFB05460DB16C7A00E0FF2420467C
:101F100070BD00002DE9F041054600F012FD00F013
:101F2000E7FC012000F007FD032000F012FD0F2068
:101F300000F019FD1327384600F0F4FC4FF47A70D6
:101F4000FFF7ECFA0446BCB1667AE07BA17B00EBBC
:101F500001202880607CA870A07C0006E17C00EB5A
:101F60000140217D00EB0120617D08446860E07D37
:101F70002872607E687200E0FF26A6B929880FA04B
:101F800001F09AF9A97813A001F096F915A06968F3
:101F900001F092F9687A4FF4165200FB02F114A096
:101FA00001F08AF907E03046FFF7B6F8804641466F
:101FB00013A001F081F93046BDE8F0810D0AC4A3F9
:101FC000BFE9D7EEB4F3D6B8CEC6C8DDC1BF3D2554
:101FD000640000000D0AB6D4B1C8B5C8BCB63D2532
:101FE000640000000D0AB5D8D6B73D257800000082
:101FF0000D0AB2A8CCD8C2CA3D25640D0A00000063
:102000000D0A25730000000070B500F09AFC00F086
:102010006FFC012000F08FFC032000F09AFC0520EB
:1020200000F0A1FC0926304600F07CFC4FF4FA6079
:10203000FFF774FA05460DB16C7A00E0FF242046E4
:1020400070BD000008B50121082000F087FA1020BB
:10205000ADF8000028208DF8030003208DF8020061
:1020600069460248FFF790F908BD0000000C0140E6
:102070002DE9F04106460C4600F063FC00F038FC08
:10208000012000F058FC062000F063FC062000F060
:102090006AFC3046FFF7CEFB2012FFF7CBFBE0B225
:1020A000FFF7C8FB06F10D0000EB2420E1B200EBC6
:1020B0000108404600F036FC4FF4FA60FFF72EFAB4
:1020C00007460FB17D7A00E0FF252846BDE8F08184
:1020D0002DE9F041064600F034FC00F009FC012037
:1020E00000F029FC032000F034FC1D2000F03BFC34
:1020F0002127384600F016FC4FF4FA60FFF70EFA7D
:10210000044634B1657AE07AA17A00EB0120308090
:1021100000E0FF253DB9E07AA27A00EB022107A09A
:1021200001F0CAF807E02846FEF7F6FF8046414670
:1021300006A001F0C1F82846BDE8F0810D0AD6B826
:10214000CEC6D3D02564B8F60D0A00000D0A25735B
:102150000000000010B5142000F006FB044604F057
:10216000030018B90321142000F003FC10BDF0B5E2
:1021700087B00546002708210846FEF705FE002126
:102180000D2001F029F880210E20FEF7FDFD93209F
:102190008DF8080020208DF8090001A802AB02226A
:1021A00002A900900C2000F01AF8064686B9002417
:1021B00007E002A8005D285502A8005D4740601CAA
:1021C000C4B2042CF5DB02A8005DB84200D00226A0
:1021D00080210E2000F0CDFB304607B0F0BD2DE988
:1021E000FE4F0646884691469A46DDF830B00220FA
:1021F00002900020019000900C2E06D00E2E09D1E6
:10220000122001901020009005E0772001903020EE
:10221000009000E000BF00BF019840F08001022064
:1022200000F0DAFF80210420FEF7AEFD002101203E
:1022300000F0D2FF80210A2000F09BFB002505E082
:1022400018F80510092000F0C7FF6D1C4D45F7D3A5
:102250003146012000F0C0FF0C2E03D180210D205B
:1022600000F087FB4FF47A7500BF042000F07CFA81
:1022700004466D1E35B104F0010018B900982040E5
:102280000028F2D080210D20FEF77EFD95B30620B8
:1022900000F06AFA00F01B0068BB00200290019871
:1022A000204000F0010008B1012002900C2E24D142
:1022B0000A2000F059FA04460C2000F055FA00F00C
:1022C00007072FB1601E07EBC000CBF8000002E04B
:1022D000E000CBF8000004B90124122C00DD122428
:1022E000002505E0092000F03FFA0AF805006D1C02
:1022F000A542F7D301E00220029080210C2000F0DB
:1023000038FB0021012000F067FF0298BDE8FE8F36
:1023100070B588B005460C4608210846FEF734FD26
:1023200007210D2000F058FF0321142000F021FBAD
:102330008DF80C5002A803AB012203A900900C20D9
:10234000FFF74DFF06464EB90298102806D19DF8BA
:102350000C0020709DF80D00607000E002263046F1
:1023600008B070BD10B54FF480711F48FFF7A2F898
:10237000012001F063FC4FF480711B48FFF798F8CF
:10238000012001F05BFC4FF480711748FFF792F8D1
:10239000012001F053FC0F21012000F01DFF00BFC0
:1023A000012000F0E1F900F010000028F8D1012030
:1023B00001F044FC3D21112000F00EFF1E212D20D4
:1023C00000F00AFF00212C2000F006FF8D212A20BA
:1023D00000F002FF3E212B2000F0FEFE40211520E0
:1023E00000F0FAFE10BD00000008014070B588B092
:1023F000054693208DF80C0070208DF80D0000200C
:102400008DF8120000240BE0295D03AAA01C1154D2
:102410009DF81200295D48408DF81200601CC4B27E
:10242000042CF1DB0DF11302072103A8FEF776FC63
:1024300008210846FEF7A8FC02A803AB092203A95D
:1024400000900C20FFF7CBFE064626B9029818280C
:1024500001D1002600E00226304608B070BD000021
:1024600010B53AE01D495220FFF752FF1C49087091
:102470000846007820B91B48FFF779FE1849087014
:102480001748007820B91748FFF7B0FF14490870C3
:102490001348007808BB134800781349097888422C
:1024A00016D11048407810494978884210D10D481B
:1024B00080780D49897888420AD10A48C0780A494B
:1024C000C978884204D1642001F098FB012010BD36
:1024D000642001F093FB0020F9E7C3E731000020FE
:1024E0003B000020330000203700002010B500F032
:1024F00057F94FF480710748FEF7DCFF4FF4805125
:102500000548FEF7D7FFFFF72DFF4120FFF768F9D9
:1025100010BD000000080140000C014029B1064A2E
:10252000D2690243044BDA6104E0034AD269824370
:10253000014BDA61704700000010024029B1064AE1
:1025400012690243044B1A6104E0034A1269824390
:10255000014B1A61704700000010024029B1064A81
:1025600092690243044B9A6104E0034A92698243F0
:10257000014B9A61704700000010024029B1064AE1
:10258000D2680243044BDA6004E0034AD268824313
:10259000014BDA60704700000010024030B50021A6
:1025A0000022002400232D4D6D6805F00C0121B19F
:1025B000042905D0082923D105E0294D056022E032
:1025C000274D05601FE0254D6D6805F47012234D01
:1025D0006D6805F48034022505EB92421CB9214D4B
:1025E000554305600BE01D4D6D6805F400351DB1C8
:1025F0001C4D5543056002E0194D5543056002E04E
:10260000174D056000BF00BF144D6D6805F0F00167
:102610000909154D6B5C0568DD4045600F4D6D681F
:1026200005F4E061090A104D6B5C4568DD4085608A
:102630000A4D6D6805F46051C90A0B4D6B5C456825
:10264000DD40C560054D6D6805F44041890B074DBF
:102650006B5CC568B5FBF3F5056130BD0010024049
:1026600000127A0000093D002403002034030020FA
:102670004CE0FFF7F5FE264908600846006801288F
:1026800015D1244908604FF4FA7001F0B7FA002020
:102690002149C1F8800121A000F00EFE012123484C
:1026A000006802F0A8FA0020214908601BE021A080
:1026B00000F002FE00240FE00120164908604FF4EC
:1026C000FA7001F09BFA00201349C1F880014FF421
:1026D000FA7001F093FA641C032CEDDB14480068D7
:1026E000401C134908601248006803280BDB15489A
:1026F000006802F0DDF90E48016813A000F0DCFD6F
:10270000002002F0D5F90A2002F0CEF8B1E700006F
:10271000040000208081214200802142BFA8BAC568
:10272000CAB6B1F0B3C9B9A60A0000001000002073
:1027300000000020BFA8BAC5CAB6B1F0CAA7B0DC75
:102740000A0000002C000020B4EDCEF33D25642CDF
:10275000B7C7B7A8C8EBC7D6A3ACD6C7C4DCCBF8FD
:10276000CDA3D3C3310A000070B504467E2000EA31
:10277000440040F080054FF480510848FEF798FE71
:10278000284600F087F800F05BF806464FF48051C9
:102790000248FEF78FFE304670BD0000000C01407D
:1027A00008B501210C20FFF7D9FE4FF48050ADF899
:1027B000000010208DF8030003208DF80200694608
:1027C0001D48FEF7E1FD4FF40050ADF80000102069
:1027D0008DF8030003208DF8020069461648FEF7C5
:1027E000D3FD4FF48040ADF8000004208DF80300C5
:1027F00003208DF8020069460F48FEF7C5FD4FF42F
:102800000040ADF8000010208DF8030003208DF883
:10281000020069460848FEF7B7FD4FF48070ADF836
:10282000000010208DF8030003208DF80200694697
:102830000248FEF7A9FD08BD000C01400008014058
:1028400070B500251FE06006040E4FF400511048DB
:10285000FEF72EFE142001F0F1F94FF480410C48F0
:10286000FEF71DFE012801D144F00104142001F0FF
:10287000E5F94FF400510648FEF71CFE142001F064
:10288000DDF9681CC5B2082DDDDB204670BD0000F7
:10289000000C014070B50446002524E004F08000DF
:1028A00028B14FF400411148FEF704FE04E04FF454
:1028B00000410E48FEF7FCFD142001F0BFF94FF473
:1028C00000510A48FEF7F4FD142001F0B7F94FF467
:1028D00000510648FEF7EEFD142001F0AFF9600646
:1028E000040E681CC5B2082DD8DB70BD000C014079
:1028F00010B50B490968080EFEF79CFF08480068F0
:10290000C0F30740FEF796FF05480088C0F3072094
:10291000FEF790FF02490878FEF78CFF10BD00001B
:102920004000002010B504462012FEF783FFE0B2FD
:10293000FEF780FF10BD10B504462046FEF77AFF73
:1029400010BD10B5EF20FEF775FF0120FEF772FFF6
:1029500010BD10B50446C4F30720FEF76BFFE0B2CC
:10296000FEF768FF10BD10B504462046FEF762FF73
:1029700010BD70B505460C462846FFF7F5FE064625
:1029800046EA0401284600F027FC70BD10B500F0AF
:1029900001F810BD0CB5002001900090334800688C
:1029A00040F480303149086000BF3048006800F4CE
:1029B000003000900198401C0190009818B90198CF
:1029C000B0F5A06FF1D12948006800F4003010B1D3
:1029D0000120009001E0002000900098012843D1E0
:1029E0002348006840F0100021490860084600684C
:1029F00020F0030008600846006840F0020008600C
:102A00001A484068194948600846406848600846C6
:102A1000406840F4806048600846406820F47C10BC
:102A200048600846406840F4E8104860084600687E
:102A300040F08070086000BF0C48006800F0007033
:102A40000028F9D00948406820F003000749486091
:102A50000846406840F00200486000BF03484068F4
:102A600000F00C000828F9D10CBD00000010024055
:102A7000002002407CB5054601F0C6FE02F0AEF82B
:102A8000304908600846006810B12FA000F014FC1F
:102A90003148032100234FF40072CDE900102FA12B
:102AA000314802F089F90446012C02D12FA000F030
:102AB00003FC3348032100234FF40072CDE90010DA
:102AC00030A1334802F078F90446012C02D131A03C
:102AD00000F0F2FB3448032100234FF40072CDE9EB
:102AE000001032A1344802F067F90446012C02D1EB
:102AF00032A000F0E1FB3648032100234FF40072BE
:102B0000CDE9001033A1374802F056F90446012CF4
:102B100002D135A000F0D0FB394804210023CA01BE
:102B2000CDE9001037A13A4802F046F90446012CDD
:102B300002D138A000F0C0FB002001F0CFFE01F070
:102B400075FE7CBD10000020CAC2BCFED7E9B4B43B
:102B5000BDA8B3C9B9A60A00180000204C43445FC1
:102B60005461736B00000000E91600084C4344C830
:102B7000CECEF1B4B4BDA8B3C9B9A60A0000000016
:102B80001C000020524649445F5461736B000000F2
:102B90007126000852464944C8CECEF1B4B4BDA84F
:102BA000B3C9B9A60A000000200000204153363006
:102BB000385F5461736B0000990800084153363048
:102BC00038C8CECEF1B4B4BDA8B3C9B9A60A0000C6
:102BD00024000020455350383236365F5461736B01
:102BE00000000000950E000845535038323636C8B4
:102BF000CECEF1B4B4BDA8B3C9B9A60A0000000096
:102C00002C0000204C45445F5461736B00000000B1
:102C1000891700084C4544C8CECEF1B4B4BDA8B362
:102C2000C9B9A60A00000000042808D14FF0E0212D
:102C3000096941F004014FF0E022116107E04FF013
:102C4000E021096921F004014FF0E0221161704791
:102C500010B502F0E1F8012801D002F093F810BDA0
:102C600010B51348006840F001001149086008469B
:102C70004068104908400E494860084600680E49FF
:102C800008400B4908600846006820F4802008606E
:102C90000846406820F4FE0048604FF41F0088603A
:102CA000FFF774FE4FF000600449086010BD00009B
:102CB000001002400000FFF8FFFFF6FE08ED00E004
:102CC00010B50121094800F06CF868B10848008887
:102CD00040F40040064908800121044800F052F801
:102CE0000021024800F051F810BD0000000400402F
:102CF000480000207FB505460C4601210220FFF761
:102D00000DFCADF80850ADF804400020ADF80A0005
:102D1000ADF8060001A90D4800F060F80122114647
:102D20000A4800F04FF81D208DF8000000208DF8B3
:102D3000010001208DF802008DF803006846FEF7BF
:102D40008BFD0121014800F020F87FBD0004004008
:102D500010B50121094800F024F868B1084800883E
:102D600040F40040064908800121044800F00AF8B8
:102D70000021024800F009F810BD000000080040E2
:102D800090030020CA430282704721B1028842F0BA
:102D90000102028004E002884FF6FE731A400280AE
:102DA000704730B50246002000230024158A05EA4A
:102DB0000103958905EA010413B10CB1012000E07B
:102DC000002030BD1AB183890B43838102E08389DF
:102DD0008B43838170478184704700000022028802
:102DE0001D4B98420ED01D4B98420BD0B0F1804F36
:102DF00008D01B4B984205D01A4B984202D01A4B70
:102E0000984204D14FF68F731A404B881A43174BE0
:102E1000984207D0164B984204D04FF6FF431A4011
:102E2000CB881A4302808B8883850B8803850A4BE5
:102E300098420BD0094B984208D00E4B984205D0CF
:102E40000D4B984202D00D4B984201D10B7A03866C
:102E50000123838270470000002C014000340140B0
:102E60000004004000080040000C0040001000403A
:102E7000001400400040014000440140004801406F
:102E800010B540F225510A4800F0DFF870B108484B
:102E900000F096F9C1B20748D0F80421D0F8040137
:102EA000401C044BC3F804011846815410BD0000B7
:102EB000003801403005002010B540F2255110487F
:102EC00000F0C3F8D8B10E4800F07AF9C4B20D484A
:102ED000008800F4004090B90A480088802808DA89
:102EE000084801880088401C064A1080064844545F
:102EF00005E00448008840F400400249088010BD05
:102F00000044004090030020004B002010B540F228
:102F10002551164800F099F8F8B1144800F050F91E
:102F2000C4B21348008800F40040B0B910480088CB
:102F3000C82813DA00210F48FFF74DFF0C4800881E
:102F400018B901210B48FFF720FF094801880088C4
:102F5000401C074A10800848445405E00448008893
:102F600040F400400249088010BD000000480040C5
:102F70004800002000040040A003002021B1828905
:102F800042F40052828104E082894DF6FF731A40B8
:102F90008281704710B504462048844209D101213E
:102FA0008803FFF7EBFA00214FF48040FFF7E6FAC1
:102FB00032E01B48844209D101214804FFF7BEFAE0
:102FC00000214FF40030FFF7B9FA25E0154884429C
:102FD00009D101218804FFF7B1FA00214FF48020C4
:102FE000FFF7ACFA18E01048844209D10121C80467
:102FF000FFF7A4FA00214FF40020FFF79FFA0BE03F
:103000000A48844208D101210805FFF797FA0021F8
:103010004FF48010FFF792FA10BD00000038014015
:103020000044004000480040004C00400050004078
:1030300002460020B1F5007F00D100BF13880B408D
:103040000BB1012000E00020704770B5024600245B
:1030500000230025002040F66A16B14200D100BFCF
:10306000C1F3421501F01F03012606FA03F3012DF7
:1030700002D19689334006E0022D02D1168A3340F0
:1030800001E0968A33400C12012606FA04F41688F1
:10309000344013B10CB1012000E0002070BDF0B548
:1030A0000346002400260025002040F66A17B94296
:1030B00000D100BF1846C1F3421401F01F060127DA
:1030C00007FA06F5012C01D10C3004E0022C01D1E5
:1030D000103000E014301AB107682F43076002E097
:1030E0000768AF430760F0BD2DE9F04786B005469D
:1030F0000E460024A24600BFA1460027B08900B1B9
:1031000000BF2F462C8A4CF6FF700440F088044321
:103110002C82AC894EF6F3100440B0883189084304
:10312000718908430443AC81AC8A4FF6FF400440E8
:10313000B0890443AC8201A8FFF730FA1F488742E8
:1031400002D1DDF810A001E0DDF80CA0A88900F4A0
:10315000004040B10AEBCA0000EB0A103168490098
:10316000B0FBF1F807E00AEBCA0000EB0A10316887
:103170008900B0FBF1F86420B8FBF0F004012009ED
:10318000642101FB1089A88900F4004040B132207D
:1031900000EBC900B0FBF1F000F00700044308E0C9
:1031A000322000EB09106421B0FBF1F000F00F00B9
:1031B00004432C8106B0BDE8F087000000380140D0
:1031C00001468888C0F308007047C1F30802828076
:1031D000704700BFFEE7000070B504460D467E2034
:1031E00000EA44064FF480510748FEF761F9304683
:1031F000FFF750FB2846FFF74DFB4FF48051024884
:10320000FEF758F970BD0000000C01402DE9F041B7
:1032100005462C4620211148FEF74AF9002619E000
:10322000274607F08007802F04D180210B48FEF746
:1032300041F903E080210948FEF73AF96006040EDF
:1032400020210648FEF736F920210448FEF730F920
:10325000701CC6B2082EE3DBBDE8F0810008014017
:1032600010B50446FEF72AF97820FFF7CFFFFEF7E6
:1032700049F90020FFF7CAFFFEF744F92046FFF79F
:10328000C5FFFEF73FF9FEF72DF910BD10B5044656
:10329000FEF714F97820FFF7B9FFFEF733F9402065
:1032A000FFF7B4FFFEF72EF92046FFF7AFFFFEF75A
:1032B00029F9FEF717F910BD0FB4054B10B503A996
:1032C000044A029800F0DCF810BC5DF814FB000022
:1032D000093E00082003002037B514460846064B77
:1032E0006A46214600F0CCF804466946002000F00A
:1032F0005EFC20463EBD0000AF3B000802E008C86F
:10330000121F08C1002AFAD170477047002001E05F
:1033100001C1121F002AFBD1704700002DE9FF5F99
:10332000DDE90220010DDDF838B0024318D044F683
:103330001050A1F2FF3141430D140F98012820D005
:10334000A5EB0B00401C5FEA000A4FF00004474E5B
:10335000DFF81C91A046504616D5CAF1000728E0B8
:103360000F98012443A2012808D0002100980F9B48
:10337000C0E90021C0E90243BDE8FF9F6FEA0B01ED
:10338000F4E7CBF10000DEE7074612E0F80707D0CC
:103390002246334640464946FDF74BF8804689466B
:1033A0002246334610461946FDF743F804460E46BA
:1033B0007F10002FEAD1DDE90201BAF1000F424689
:1033C0004B4602DAFDF735F801E0FDF7A4F80446B4
:1033D0000E460022284BFDF725F903D84FF0FF30A9
:1033E000014607E00022254B20463146FCF77AFFD4
:1033F000FDF700F9102409E0002C0ADB0A22002363
:10340000FCF73FFF019B30321A55641E50EA01025F
:10341000F2D1641C019AC4F1110314440F9A012AD9
:1034200003D0012208430DD10AE0084304D0002054
:103430004FF0110B0F9080E7A3EB0B056D1E0DE015
:103440005B4504DD4FF0000205F1010504E003DAFD
:103450004FF00002A5F10105002AECD000980F9969
:10346000C0E90231C0E9004586E7000000002440C1
:103470000000F03F300000000000F0430000E03F9B
:103480002DE9FF4F95B09B468946064600250FE281
:10349000252877D100242746F84A0121059400E029
:1034A000044316F8013F203B01FA03F01042F7D124
:1034B00030782A2811D06FF02F033078A0F1300235
:1034C000092A16D8059A44F0020402EB820203EBA3
:1034D00042021044761C0590EFE759F8042B059240
:1034E000002A03DA504244F40054059044F00204E8
:1034F000761C30782E2816D116F8010F44F00404FB
:103500002A280DD06FF02F023078A0F13003092B5C
:1035100009D807EB870302EB4303C718761CF3E7D0
:1035200059F8047B761C30786C280FD006DC4C28C8
:1035300017D068280DD06A2814D104E0742810D060
:103540007A280FD10DE044F400140AE044F480140A
:1035500001E044F440147278824202D104F58014F0
:10356000761C761C307866280BD013DC582877D070
:1035700009DC002875D04528F6D04628F4D0472825
:103580001AD19DE118E0632835D0642879D06528E8
:1035900012D195E1702873D008DC6728F1D0692832
:1035A0006FD06E280DD06F2806D1B5E073282CD0CF
:1035B000752875D0782874D05A46179990476D1C95
:1035C00075E1C4F30250022809D003280DD0D9F8C0
:1035D000001004280DD00D6009F1040967E1D9F845
:1035E0000010EA17C1E90052F6E7D9F800100D8083
:1035F000F2E70D70F0E719F8041B8DF800100020B9
:103600008DF80100EA46012003E059F804AB4FF0C1
:10361000FF3061074FF0000102D40DE008F1010115
:103620008846B9420FDA8045F8DB1AF808100029FD
:10363000F4D108E008F1010188468142FADB1AF86A
:1036400008100029F6D105985B46A0EB0807214633
:103650003846179A00F094FA284400EB080507E072
:103660004DE029E10DE01AF8010B5A4617999047F1
:10367000B8F10108F7D25B4621463846179A13E1A4
:1036800042E00A220092C4F302524FF0000A022ADA
:1036900008D059F804CB032A4FEAEC710AD00DE0A8
:1036A00029E02AE009F1070121F00702F2E802C14E
:1036B000914609E00FFA8CFC4FEAEC71042A03D121
:1036C0004FFA8CFC4FEAEC71002907DA0A46002118
:1036D000DCF1000C61EB02012D2202E0220504D591
:1036E0002B228DF80420012203E0E20701D02022E2
:1036F000F7E7904659E00A2102E010220DE0102180
:103700004FF0000A00910BE010224FF0000A44F045
:1037100004040827009203E008224FF0000A0092F8
:10372000C4F30252022A05D059F804CB0021032A1F
:1037300008D009E009F1070121F00702F2E802C10F
:10374000914605E01FFA8CFC042A01D10CF0FF0C15
:103750004FF00008220728D5702806D0009B83F080
:10376000100353EA0A0305D00EE040228DF804202E
:10377000012208E05CEA010206D030228DF8042024
:103780008DF8050002229046009B83F0080353EA5F
:103790000A030AD15CEA010201D1620705D5302291
:1037A0008DF804204FF001087F1E582804D034A063
:1037B00003900EA802900DE036A0F9E7534660464C
:1037C000009AFCF75EFD84460398825C0298401ED6
:1037D000029002705CEA0100F0D1029806A9081A72
:1037E00000F1200A600702D524F4803400E00127AC
:1037F000574502DDA7EB0A0000E0002000EB0A01BC
:10380000009005984144401A0590E00306D45B46B9
:103810002146179A059800F0B3F90544002706E001
:1038200001A85A46C05D179990476D1C7F1C4745FB
:10383000F6DBE0030CD55B462146179A059800F0AD
:103840009FF9054404E030205A46179990476D1CB3
:103850000099481E00900029F5DC08E002980299C2
:103860005A460078491C0291179990476D1CBAF18D
:103870000001AAF1010AF1DC65E10000092801005C
:1038800030313233343536373839616263646566D6
:103890000000000030313233343536373839414298
:1038A000434445460000000000F058F90544761CEA
:1038B000307800287FF4ECAD19B02846BDE8F08FD1
:1038C000620700D4062709F1070222F0070CFCE882
:1038D0000223E14603F000485FEA080C02D00FF231
:1038E000702C0DE05FEA045C02D50FF2682C07E053
:1038F0005FEAC47C02D00FF2602C01E0AFF2700CE2
:103900004FF0FF3823F00043CDF850C065280CD0AD
:1039100006DC452809D046281DD047283DD13DE08A
:10392000662818D067287ED138E00021112F01DBEE
:10393000112000E0781CCDE9000106A90EA8FFF7D0
:10394000EDFCDDE90F010E9A03910021009207F1D1
:10395000010A04914DE04FF000400097CDE90110BD
:1039600006A90EA8FFF7DAFCDDE90F0203920E9B11
:1039700011990022DDF80CA00093049211B9791C72
:1039800000EB010AB7EB0A0004D4C0F1FF3007F1E5
:10399000010A0490AAEB0700019044E0012F00DA2D
:1039A00001270021112F01DD112000E03846CDE96B
:1039B000000106A90EA8FFF7B1FCDDE90F010E9A80
:1039C0000391002104910092BA4621070CD4039977
:1039D000514500DA8A46BAF1010F05DD009AAAF1D5
:1039E0000101515C302908D0B84202DA10F1040F0D
:1039F00006DA0121CDE9011015E0AAF10101E9E79C
:103A0000002805DC049901440491AAEB000102E0BE
:103A1000411C514500DD8A460499401A401C019022
:103A20004FF000400290200704D40198504501DB7C
:103A3000CDF8048000208DF84F0002980DF14F075B
:103A4000B0F1004F25D02B200E9002984FF00208C5
:103A500000280CDA404202902D200E9007E00A2147
:103A60000298FCF7F8FB3031029007F8011DB8F11D
:103A70000001A8F10108F2DC02980028EFD1791EBC
:103A80000E980870307800F0200040F0450007F8EC
:103A9000020D12A8C01B00F107081498007800B1AD
:103AA000012000EB0A01019801EBE0710598414407
:103AB000401A401E0590E00306D45B462146179A43
:103AC000059800F05DF805441498007818B15A463E
:103AD000179990476D1CE00324D55B462146179A41
:103AE000059800F04DF805441CE00498002807DB19
:103AF000DDE90301884203DD0098405C179901E08D
:103B0000179930205A469047049805F10105401C4A
:103B100004900198401E019004D12E205A46179916
:103B200090476D1CBAF10001AAF1010ADDDC05E045
:103B300017F8010B5A46179990476D1CB8F1000110
:103B4000A8F10108F4DC5B462146179A0598ABE61C
:103B50002D0000002B000000200000002DE9F041A6
:103B6000044600251E461746880404D405E039465D
:103B70002020B0476D1C641EF9D52846BDE8F081B1
:103B80002DE9F041044600251E469046C80301D5A4
:103B9000302700E02027880404D505E04146384658
:103BA000B0476D1C641EF9D52846BDE8F0810A684F
:103BB000531C0B601070704770B504460420FFF76B
:103BC00033F80C48047025464FF47A7045430120C1
:103BD000094908804FF0E020006940F002004FF0F2
:103BE000E021086108464561006940F00100086174
:103BF00070BD00001A0300201C03002070B50446AD
:103C000001F00AF9012810D00B480088844206D33D
:103C100009480088B4FBF0F5284600F045FE064848
:103C20000088B4FBF0F100FB11444FF47A7104FBFF
:103C300001F000F003F870BD1C03002070B50346CE
:103C400000224FF0E02675690D4E367803FB06F42E
:103C50004FF0E026B16910E04FF0E026B0698842ED
:103C60000BD0884202D20E1A324402E02E1A0E44C1
:103C700032440146A24200D300E0EDE700BF70BD30
:103C80001A03002070B5044600250948008800F496
:103C9000004058B1002006490988C1F30E01054AC9
:103CA000505421461046FCF7BDFA0546284670BD23
:103CB00090030020004B00202DE9F04106460D4600
:103CC00014460027002013490880314612A000F056
:103CD000FFFBE5B1DCB113E00A20FFF78FFF0D48D1
:103CE000008800F4004058B12846FFF7CBFF20B110
:103CF00029460BA0FFF7E0FA06E0002005490880FE
:103D0000601E80B20400E7D100BF04B90127384625
:103D1000BDE8F0819003002025730D0A000000002B
:103D200061636B3A25730D0A0000000010B5322262
:103D300017A118A0FFF7C0FF142215A118A0FFF7C4
:103D4000BBFF4FF47A70FFF759FF4FF47A70FFF71B
:103D500055FF4FF47A70FFF751FFC8220CA112A053
:103D6000FFF7AAFF14220AA118A0FFF7A5FFC82297
:103D700007A119A0FFF7A0FFC82205A11BA0FFF70C
:103D80009BFFC82202A11CA0FFF796FF10BD0000F8
:103D90004F4B000041542B43574D4F44453D32009B
:103DA00041542B525354000041542B43575341501C
:103DB0003D2245535038323636222C2231323334AC
:103DC00035363738222C31312C33000041542B4307
:103DD00049504D55583D310041542B4349505345AE
:103DE000525645523D312C383038300041542B4327
:103DF000494653520000000041542B43495053455B
:103E00004E443D302C38000000BF054A128802F0B5
:103E10004002002AF9D0C2B2014B1B1D1A80704724
:103E20000038014010B54820FFF7C6FE4FF4A060EF
:103E3000FDF74AFD4FF4E13000F072FB4FF4E13042
:103E400000F0C8FBFFF772FFFDF774FCFDF7AAFB5B
:103E5000FEF74CFBFCF746FF4FF4614000F014FC0A
:103E6000FEF7F0F8FCF7C2FC10BD000008B5002218
:103E700011461820FDF774FE012200212820FDF7CD
:103E80006FFE022200213820FDF76AFE0322002186
:103E90004820FDF765FE042200215820FDF760FE52
:103EA000044806235422022100902C20FDF772FDC5
:103EB00008BD0000520200201CB5FFF7B3FFFDF75C
:103EC000A5FDFDF70BFD0748012100234A02CDE9BE
:103ED000001005A1074800F06FFF00F0B7FD0020BB
:103EE0001CBD00001400002053746172745F5461A3
:103EF000736B0000752A000810B50246012000E02F
:103F000050430B00A1F10104E1B2F9D110BD000052
:103F100038B5FDF73CFF0446D4B90EA0FFF7CCF945
:103F20000120FDF711FF04467CB90EA0FFF7C4F98C
:103F3000104802886B4600210120FDF785FF0446EA
:103F40000CB9012038BD0020FCE7C820FFF756FE61
:103F500000BFF7E7BBF1C8A1CDBCCFF1B3C9B9A68B
:103F60000D0A0000C9FAB3C9CCD8D5F7B3C9B9A6B0
:103F70000D0A0000940300202DE9F04105460E468D
:103F80001C4807681C480068001D00F0E5FB50B99C
:103F90001948006890F82C100120884017490968DA
:103FA000814316480160681C38B936B1124801686F
:103FB000091D134800F01CFC1AE07C190E4800682B
:103FC0004460BC4207D20C480168091D0D480068D6
:103FD00000F0F4FB0CE008480168091D0A4800687D
:103FE00000F0ECFB09480068844201D207480460F5
:103FF000BDE8F0814C03002038030020500300206E
:10400000EC060020400300203C0300206803002051
:1040100010B5044600F0F8FB23480068401C224914
:1040200008602248006840B92048046008460068DB
:1040300001280DD100F014F90AE01D48006838B9D4
:104040001A480068C06AE16A884201D817480460CB
:1040500018480068401C1749086094F82C1001208B
:10406000884015490968084313490860E16A01EB73
:104070008101124A02EB8100211D00F0B9FB00F022
:10408000D5FB0B48006868B108480068C06AE16A5F
:10409000884207D24FF0805009490860BFF34F8F24
:1040A000BFF36F8F10BD00004803002038030020CD
:1040B0005403002064030020500300203806002031
:1040C00004ED00E070B523E000F050FD13480068F7
:1040D00008B9012000E00020054600F073FFBDB9DB
:1040E00000F092FB0D48C068C468201D00F034FB4E
:1040F0000B480068401E0A4908600A480068401ED4
:104100000849086000F092FB204600F00DF800BF5F
:10411000044800680028D7D170BD0000D8060020F0
:10412000480300204403002010B50446206B00F033
:104130008DFB204600F08AFB10BD000030B54FF427
:104140008843174800F007042CB1C01D20F0070079
:10415000134C041B1B1B0246124C22600024114D01
:104160006C60D018083820F007000F4C2060002445
:104170000D4D2D686C600C4D2D682C601146441A55
:104180004C60094C24680C60084D4C682C60084D4C
:104190004C682C604FF00044064D2C6030BD000090
:1041A00000070020740300207C030020840300200B
:1041B000800300208803002000BFFFF783FF06482C
:1041C00000680128F9D94FF0805004490860BFF316
:1041D0004F8FBFF36F8FF0E73806002004ED00E04B
:1041E0002DE9FF5F80460E469146DDE90E7A109C70
:1041F000A9F10100216B01EB800B2BF0070B0025CF
:1042000007E0715D04F134004155705D00B902E0D2
:104210006D1C102DF5D300BF002143200155052F43
:1042200000D30427E762201D00F0C5FA04F118004E
:1042300000F0C1FA2461C7F10500A06164620020AA
:10424000606484F8480041465846039A00F02EF90D
:104250002060BAF1000F01D0CAF80040BDE8FF9F0E
:1042600010B5002407E004EB84010F4A02EB810043
:1042700000F094FA641C052CF5D30C4800F08EFA7B
:104280000B4800F08BFA0B4800F088FA0A4800F05F
:1042900085FA0A4800F082FA04480949086004488F
:1042A0000849086010BD0000380600209C06002068
:1042B000B0060020C4060020D8060020EC0600202E
:1042C0003C0300204003002010B50146164800E0E2
:1042D000006803688B42FBD30246436813448B4259
:1042E00004D143684C682344436001460A464B6846
:1042F00013440468A34211D10C4C03682468A34200
:1043000008D04B680468646823444B6003681B68EA
:104310000B6005E0054B1B680B6001E003680B6058
:10432000884200D0016010BD740300207C0300208F
:104330000A490968096809B9012100E0002121B191
:104340004FF0FF31064A116006E004490968C96868
:10435000C868034A41681160704700003C030020B0
:104360006803002000BFBF2080F31188BFF34F8F88
:10437000BFF36F8F00BF00BFFEE7000010B501461E
:1043800000200A460B4C5369A34201D1012300E0EF
:10439000002373B1084C936AA34201D1012300E0CA
:1043A000002333B9936A0BB9012300E0002303B162
:1043B000012010BDEC060020C406002010B5034605
:1043C000002022B903EA010434B1012004E003EA29
:1043D00001048C4200D1012010BD00002DE9F04104
:1043E00005464FF0000800F0C1FB2B48006808B9F3
:1043F000FFF7A4FE294800682840002847D145B1AE
:10440000083505F0070020B105F00700C0F10800ED
:104410000544002D3BD022480068854237D8214E04
:104420003046046801E0264624686068A84202D24B
:1044300020680028F7D118480068844227D03068E7
:1044400000F10808206830606068401B102807D918
:1044500067196068401B786065603846FFF734FF75
:104460000F4960680968081A0D4908600846006825
:104470000D490968884203D2094800680A49086062
:10448000064960680968084360600020206000F009
:1044900099FD4046BDE8F0817C03002088030020A0
:1044A000800300207403002084030020001F4FF0CD
:1044B00080730360001F21F001030360001F034BA2
:1044C000036014380260203870470000654300081C
:1044D0000FB438B505A800900F48009A0499FEF76C
:1044E000FBFE002000900C48FBF7AEFE85B20024D6
:1044F0000DE000BF40210948FEF79AFD0028F9D0E1
:104500000548015D0548FEF760FE601C84B2AC42C0
:10451000EFDB38BC5DF814FB804B0020004400400A
:1045200010B586B00446012144F20400FEF716F8E7
:104530002648FEF72FFD4FF40070ADF8140003205D
:104540008DF8160018208DF8170005A92048FCF7F3
:104550001BFF4FF48060ADF8140048208DF8170061
:1045600005A91B48FCF710FF25208DF8000003204B
:104570008DF801008DF8020001208DF803006846D7
:10458000FDF76AF901940020ADF80800ADF80A00C3
:10459000ADF80C00ADF810000C20ADF80E0001A92C
:1045A0000A48FEF7A1FD012240F224410748FEF728
:1045B00076FD012240F225510448FEF770FD0121ED
:1045C0000248FEF7DBFC06B010BD000000380140D9
:1045D0000008014010B586B0044601210420FDF713
:1045E000BDFF01214804FDF799FF18208DF8170041
:1045F0000420ADF8140003208DF8160005A91F480B
:10460000FCF7C2FE04208DF817000820ADF8140056
:1046100003208DF8160005A91848FCF7B5FE019493
:104620000020ADF810000C20ADF80E000020ADF811
:104630000C00ADF80A00ADF8080001A91048FEF71B
:1046400053FD01210E48FEF799FC012240F225514D
:104650000B48FEF724FD26208DF8000001208DF880
:10466000030000208DF801008DF802006846FDF778
:10467000F3F800200349088006B010BD000801408F
:10468000004400409003002010B586B0044601218C
:104690000820FDF763FF01218804FDF73FFF2A484A
:1046A000FEF778FC4FF48060ADF8100003208DF821
:1046B000120018208DF8130004A92448FCF764FEAA
:1046C0004FF40060ADF8100004208DF8130004A929
:1046D0001E48FCF759FE00940020ADF80400ADF828
:1046E0000600ADF80800ADF80C000C20ADF80A008B
:1046F00069461548FEF7F8FC01211348FEF73EFC19
:10470000012240F225511048FEF7C9FC27208DF800
:10471000140002208DF8150003208DF816000120EA
:104720008DF8170005A8FDF797F841F61F4140F2F4
:10473000E730FEF7DFFA0020054908800021054830
:10474000FEF723FB06B010BD00480040000C0140FE
:10475000480000200004004001460A69D1E9013008
:104760009860D1E9010358605068884201D1886897
:104770005060002008611068401E1060106870478B
:1047800005490968886904490968C96AC1F10501D0
:10479000014A1268916170473803002000F1080156
:1047A00041604FF0FF31816000F10801C16001619B
:1047B00000210160704700210161704710B5024679
:1047C0000B685C1C0CB9106907E002F1080000E0FE
:1047D0004068446824689C42FAD944684C604C683C
:1047E000A160886041600A611468641C146010BD97
:1047F00042684A6093688B60936859609160086171
:1048000003685B1C0360704700BFBF2080F3118802
:10481000BFF34F8FBFF36F8F00BF03480068401C8A
:1048200001490860704700008C03002006480068BA
:10483000401E054908600846006820B9002080F342
:10484000118800BF00BF70478C03002070B506467A
:104850003546D6B1083D2C460C49606809680840C9
:1048600098B1206888B90949606809688843606020
:1048700000F07CF90649606809680844044908604A
:104880002046FFF721FD00F09DFB70BD880300204E
:104890008003002003484FF0E021486107200861B1
:1048A000704700003F19010070B50446002544B16F
:1048B00000F05CF900212046FFF75EFB00F082FB70
:1048C00005463DB94FF0805003490860BFF34F8F54
:1048D000BFF36F8F70BD000004ED00E070B50546BA
:1048E000FFF792FF15B92748006800E02846044604
:1048F000201DFFF731FF78B9E06A00EB8000224904
:1049000051F8200040B994F82C10012088401F492C
:10491000096881431D480160A06A18B104F11800BC
:10492000FFF71AFF1A480068401C1949086015482B
:104930000068844209D1211D1648FFF759FF164827
:104940000068401C1449086009E014480068401ED3
:10495000124908602046FFF7E7FBFFF7E9FCFFF785
:1049600065FF0F48006858B106480068844207D1C7
:104970004FF080500B490860BFF34F8FBFF36F8F2C
:1049800070BD0000380300203806002050030020CE
:1049900064030020D80600204403002048030020C0
:1049A0005403002004ED00E070B506460C461546A1
:1049B00044F00040064909688861054801681831DB
:1049C0003046FFF715FF01212846FFF7D5FA70BDE5
:1049D0003803002070B505462C4674B317480068AC
:1049E00084422AD0FFF710FF2046FFF7C7FC10B320
:1049F000201DFFF7B1FE94F82C10012088401049CB
:104A0000096808430E490860E16A01EB81010D4A1B
:104A100002EB8100211DFFF7EBFE0849E06A0968FF
:104A2000C96A884207D34FF0805007490860BFF336
:104A30004F8FBFF36F8FFFF7F9FE70BD3803002073
:104A4000500300203806002004ED00E01CB511489A
:104A500000210B468022CDE900100FA1104800F084
:104A6000ABF90446012C14D100BFBF2080F311889C
:104A7000BFF34F8FBFF36F8F00BF4FF0FF30094977
:104A8000086001200849086000200849086000F01B
:104A90005FF91CBD6C03002049444C450000000038
:104AA000B941000868030020540300204C03002093
:104AB00070B50546FFF7A8FE15B92548006800E067
:104AC00028460446201DFFF747FE78B9E06A00EB50
:104AD0008000204951F8200040B994F82C100120A2
:104AE00088401D49096881431B480160A06A18B1CC
:104AF00004F11800FFF730FE211D1848FFF778FE7B
:104B0000FFF794FE1648006828B1FFF77DFEFFF717
:104B10000FFCFFF78BFE0E480068844217D1104847
:104B2000006840B14FF080500E490860BFF34F8FCE
:104B3000BFF36F8F0BE0094800680B490968884292
:104B400003D100200249086001E000F017F870BDB1
:104B5000380300203806002050030020EC06002017
:104B60005403002004ED00E04803002002480068E0
:104B7000401C01490860704770030020124800681B
:104B800018B10120114908601DE000200F4908609C
:104B90000F480068B0FA80F0C0F11F0101EB8102FC
:104BA0000C4B03EB820042685268426000F108023D
:104BB0004368934202D14268526842604268D268B8
:104BC000054B1A6000BF7047700300205C03002093
:104BD00050030020380600203803002010B51820AC
:104BE000FFF7FCFB044624B100202060201DFFF7E6
:104BF000D5FD204610BD2DE9FE4F06468946002012
:104C000001903446009004F1040B0BF1080002906F
:104C1000FFF7ACFFDBF80C70206840EA0900206069
:104C200026E0D7F804A03D680020009005F07F48FA
:104C300025F07F4508F0806028B92068284040B101
:104C40000120009005E020682840A84201D1012001
:104C50000090009858B108F0807010B10198284376
:104C60000190206840F00071384600F073F9574613
:104C700002988742D5D1206801998843206000F0CE
:104C8000A1F92068BDE8FE8F2DE9FF5F80460E4642
:104C900017469946DDF838A044464FF0000B002037
:104CA0000190FFF763FF206800904A463146009864
:104CB000FFF784FB0390039830B1009DDA46BFB143
:104CC0002068B043206013E0BAF1000F01D1009DCD
:104CD0000EE00FB14BF0807BB9F1000F01D04BF02B
:104CE000806B46EA0B015246201DFFF75DFE002552
:104CF00000F068F90290BAF1000F22D0029838B99A
:104D00004FF0805011490860BFF34F8FBFF36F8F92
:104D1000FFF736FD054605F0007080B9FFF774FD1A
:104D200025684A4631462846FFF748FB18B117B1B7
:104D30002068B0432060FFF779FD0020019025F046
:104D40007F45284604B0BDE8F09F000004ED00E078
:104D500010B50A48006840F47F000849086008461A
:104D6000006840F07F400860FFF794FD0020044990
:104D70000860FBF7F9F9002010BD000020ED00E00D
:104D80008C03002010B500BFBF2080F31188BFF353
:104D90004F8FBFF36F8F00BF00F04EF818B14FF088
:104DA00080500449086000BF002080F3118800BFD4
:104DB00010BD000004ED00E02DE9FF4F85B08046F6
:104DC00089461746DDE912ABB800FFF707FB064638
:104DD00056B14C20FFF702FB04460CB1266304E0F9
:104DE0003046FFF733FD00E000247CB10020CDE920
:104DF00000ABCDE902403A4649464046089BFFF7E2
:104E0000EFF92046FFF704F9012501E04FF0FF35E7
:104E1000284609B0BDE8F08F0549096809B90120A5
:104E200005E00449096809B9022000E00020704744
:104E300054030020700300202DE9F04100273A4878
:104E40000068002863D139480068451C3748056070
:104E50008DB93748D0F8008036480068344908607A
:104E60003448C0F8008034480068401C324908606B
:104E7000FFF75EFA00BF3148006885423BD300BFB0
:104E80002B480068006808B9012000E0002020B12C
:104E90004FF0FF30294908602CE025480068C068C1
:104EA000C4686668B54202D22448066022E0201D2C
:104EB000FFF752FCA06A18B104F11800FFF74CFC90
:104EC00094F82C10012088401D49096808431C49AA
:104ED0000860E16A01EB81011A4A02EB8100211DA1
:104EE000FFF786FC1849E06A0968C96A8842C7D397
:104EF0000127C5E700BF14480068C06A00EB8000C6
:104F0000104951F82000012800D9012704E00F487A
:104F10000068401C0D4908600D48006800B1012779
:104F20003846BDE8F0810000700300204C030020EB
:104F30003C030020400300206003002068030020A1
:104F400050030020380600203803002058030020BA
:104F50005C0300202DE9F04105460F4647F0004074
:104F60002860EC682846FFF7F7FB201DFFF7F4FBED
:104F700094F82C10012088400E49096808430D4917
:104F80000860E16A01EB81010B4A02EB8100211DFF
:104F9000FFF72EFC0949E06A0968C96A884204D90A
:104FA000012601200649086000E000263046BDE8E1
:104FB000F081000050030020380600203803002054
:104FC0005C03002070B500240026FFF71DFC2E486E
:104FD0000068401E2C4908600846006800284FD130
:104FE0002A48006800284BD024E02948C068C468DB
:104FF00004F11800FFF7B0FB201DFFF7ADFB94F89C
:105000002C10012088402349096808432149086081
:10501000E16A01EB8101204A02EB8100211DFFF7CB
:10502000E7FB1E49E06A0968C96A884202D3012089
:105030001B4908601648006808B9012000E00020FC
:105040000028D2D00CB1FFF773F91648056865B196
:1050500000BFFFF7F1FE10B10120114908606D1E7D
:10506000002DF6D100200F4908600D48006838B1C6
:10507000012630070C490860BFF34F8FBFF36F8FD5
:10508000FFF7D4FB304670BD7003002048030020BA
:10509000C4060020500300203806002038030020FA
:1050A0005C0300205803002004ED00E008B5002256
:1050B00011461820FCF754FD012200212820FCF79E
:1050C0004FFD022200213820FCF74AFD0322002177
:1050D0004820FCF745FD042200215820FCF740FD44
:1050E000044806235422022100902C20FCF752FC95
:1050F00008BD00008A010020000000000000000040
:105100000000000000000000000000F800000000A7
:10511000000000333000000000100C06100C0600E8
:10512000000000000000000040C07840C07840004F
:10513000043F04043F040400007088FC08300000B1
:10514000001820FF211E0000F008F000E018000009
:1051500000211C031E211E0000F0088870000000C2
:105160001E2123241927211010160E000000000014
:105170000000000000000000000000E01804020031
:10518000000000071820400000020418E0000000A2
:105190000040201807000000404080F080404000A0
:1051A0000202010F01020200000000F000000000F6
:1051B0000101011F010101000000000000000000CA
:1051C00080B070000000000000000000000000003F
:1051D00000010101010101010000000000000000C8
:1051E0000030300000000000000000008060180463
:1051F000006018060100000000E010080810E00040
:10520000000F102020100F00001010F80000000008
:105210000020203F2020000000700808088870004F
:1052200000302824222130000030088888483000CF
:105230000018202020110E000000C02010F80000EF
:1052400000070424243F240000F808888808080088
:105250000019212020110E0000E01088881800009D
:10526000000F112020110E0000380808C83808006F
:105270000000003F000000000070880808887000EF
:10528000001C222121221C0000E010080810E00070
:105290000000312222110F00000000C0C0000000F9
:1052A000000000303000000000000080000000001E
:1052B0000000806000000000000080402010080016
:1052C00000010204081020004040404040404000DF
:1052D00004040404040404000008102040800000BA
:1052E0000020100804020100007048080808F000BF
:1052F0000000003036010000C030C828E810E0008F
:105300000718272423140B000000C038E000000019
:10531000203C23020227382008F888888870000083
:10532000203F202020110E00C03008080808380057
:10533000071820202010080008F808080810E000CE
:10534000203F202020100F0008F88888E80810006F
:10535000203F20202320180008F88888E808100043
:10536000203F200003000000C0300808083800007B
:1053700007182020221E020008F808000008F8087C
:10538000203F210101213F20000808F80808000003
:105390000020203F2020000000000808F808080036
:1053A000C08080807F00000008F888C028180800AE
:1053B000203F20012638200008F8080000000000E7
:1053C000203F20202020300008F8F800F8F80800DE
:1053D000203F003F003F200008F830C00008F808D8
:1053E000203F200007183F00E01008080810E000E8
:1053F0000F10202020100F0008F808080808F000FF
:10540000203F210101010000E01008080810E00021
:105410000F18242438504F0008F8888888887000B6
:10542000203F2000030C3020007088080808380056
:105430000038202121221C00180808F8080818004C
:105440000000203F2000000008F808000008F808CD
:10545000001F202020201F000878880000C838087E
:10546000000007380E010000F80800F80008F800F6
:10547000033C0700073C0300081868808068180890
:1054800020302C03032C30200838C800C83808000E
:105490000000203F2000000010080808C83808005D
:1054A0002038262120201800000000FE0202020001
:1054B0000000007F40404000000C30C000000000B1
:1054C000000000010638C00000020202FE000000D9
:1054D000004040407F00000000000402020204007F
:1054E00000000000000000000000000000000000BC
:1054F00080808080808080800002020400000000A4
:10550000000000000000000000008080808000009B
:105510000019242222223F2008F800808000000089
:10552000003F112020110E0000000080808000004C
:10553000000E112020201100000000808088F8005B
:10554000000E112020103F2000008080808000008D
:10555000001F222222221300008080F088888818F1
:105560000020203F202000000000808080808000FC
:10557000006B94949493600008F800808080000091
:10558000203F210000203F2000809898000000006C
:105590000020203F2020000000000080989800009C
:1055A00000C08080807F000008F8000080808000BC
:1055B000203F24022D302000000808F800000000E1
:1055C0000020203F2020000080808080808080009C
:1055D000203F20003F20003F80800080808000002E
:1055E000203F210000203F200000808080800000BC
:1055F000001F202020201F008080008080000000ED
:1056000080FFA12020110E0000000080808080001B
:10561000000E112020A0FF8080808000808080000C
:1056200020203F2120000100000080808080800039
:105630000033242424241900008080E080800000AE
:105640000000001F202000008080000000808000FB
:10565000001F202020103F2080808000008080805C
:1056600000010E30080601008080008000808080EC
:105670000F300C030C300F00008080008080800011
:105680000020312E0E31200080808000008080803C
:1056900080818E70180601000080808080808000EC
:1056A0000021302C2221300000000000807C02020A
:1056B00000000000003F404000000000FF0000002C
:1056C00000000000FF0000000002027C80000000DB
:1056D0000040403F000000000006010102020404F7
:1056E0000000000000000000085700080000002033
:1056F0009403000094070008085800089403002051
:105700006C4C00000C330008013062011523755405
:10571000A032081AFF01611009109453321E325250
:105720001006157E4242427E4BFF49015932E1107C
:105730000908CC4A49484ACC180F117F88888482CE
:10574000E03E26121252927F0A147E201720102C5F
:10575000E72424080811E22C20BF2028E6BA000F15
:105760001301017F2111804F20100F10204F80580E
:105770000B22322AA6A26221110981E6E1000E1253
:105780004222130B42827E02020A12234616203066
:10579000AC6330080A1088C8A8998E88A8C8885EAB
:1057A0002009672212128040300F05493F404071A6
:1057B0002CE0F01801031DF0E0000E1BFCFCFFFFC5
:1057C000FE0E0E0EFEFFFFFCFC2A0F011928390801
:1057D000D10A2580010942CD0916CE2AFE0149C60B
:1057E00043FEFE0B180101C60C100C0C0CC6013850
:1057F0002D010203040400095406070809020406E7
:08580000081AAA014100000092
:04000005080001DD11
:00000001FF
